:100000000C9434000C9451000C9451000C94510049
:100010000C9451000C9451000C9451000C9451001C
:100020000C9451000C9451000C9451000C9451000C
:100030000C9451000C9451000C9451000C945100FC
:100040000C9451000C9451000C9451000C945100EC
:100050000C9451000C9451000C9451000C945100DC
:100060000C9451000C94510011241FBECFEFD8E026
:10007000DEBFCDBF12E0A0E0B1E0E4E3F9E002C0F2
:1000800005900D92AE33B107D9F712E0AEE3B2E0BE
:1000900001C01D92AE33B107E1F70E943F010C94FD
:1000A00098040C940000E1ECF0E08081886180838A
:1000B000E2ECF0E08081866080831092C50089E1E7
:1000C0008093C40008958091C00087FFFCCF809189
:1000D000C6000895982F8091C00085FFFCCF9093B3
:1000E000C60008952D9A88E592E020E931E0F901F3
:1000F0003197F1F70197D9F72D988CE291E020E93B
:1001000031E0F9013197F1F70197D9F70895382FC8
:10011000662361F027B181E090E002C0880F991F4B
:100120003A95E2F78095822387B9089527B181E057
:1001300090E002C0880F991F3A95E2F7282B27B963
:100140000895439843983B983A980895329902C08D
:1001500081E0089586B18695869586958095817013
:100160000895CF93DF93682F2D9A329B5DC0339B08
:100170005BC045C06695862F90E09C012170307071
:1001800060FF02C03B9801C03B9AFD013197F1F737
:100190003A9AFE013197F1F73A98FD013197F1F75C
:1001A000232B29F080E0442309F481E0482F5F5F8E
:1001B000583001F7442311F03B9801C03B9A80EC82
:1001C00093E0FC013197F1F73A9A20E837E0F90122
:1001D0003197F1F73A98FC013197F1F73B98FC0120
:1001E0003197F1F73A9AF9013197F1F73A98019777
:1001F000F1F780E896E10197F1F72D9815C03B9A49
:1002000080EC93E0FC013197F1F73A9AE0E8F7E0EF
:100210003197F1F73A980197F1F741E050E0A0ECFF
:10022000B3E0C0E8D7E0A7CFDF91CF9108950F9357
:100230001F93182F062F823791F0833740F48936A9
:1002400071F0893678F08B56823060F408C08437BC
:1002500048F0863720F08A3711F08D3719F480EE98
:100260000E94B100112341F0002319F080EF0E9499
:10027000B100812F0E94B1001F910F910895AF929C
:10028000BF92CF92DF92EF92FF920F931F93DF9373
:10029000CF9300D00F92CDB7DEB780E88093610096
:1002A00010926100259A2D988091C10088618093F9
:1002B000C1008091C20086608093C2001092C50088
:1002C00089E18093C400439843983B983A985E0133
:1002D0000894A11CB11C90E0C92E91E0D92E85E3B1
:1002E000E82E8091C00087FFFCCFF090C6000F2D54
:1002F00010E000D000D000D0EDB7FEB73196ADB71A
:10030000BEB71296BC92AE921197D382C282158369
:1003100004830E94C00199812DB73EB72A5F3F4FE9
:100320000FB6F8943EBF0FBE2DBF8091C00085FF71
:10033000FCCF9093C6009A818091C00085FFFCCFCE
:100340009093C6009B818091C00085FFFCCF909365
:10035000C600F801EC5FFE4F30E83F1510F4E0589E
:10036000F0408081882341F090E89F1510F461E00F
:1003700001C060E00E9417018E2D8A95F1F7B1CF80
:10038000AEE0B0E0E6ECF1E00C946F040D891E895C
:1003900086E08C831A8309838FEF9FE79E838D838A
:1003A0009E01275E3F4FCE0101966F89788DA9018E
:1003B0000E94E4012F813885020F131FF80110827B
:1003C0002E96E4E00C948B04ABE0B0E0EAEEF1E0B2
:1003D0000C9461043C012B015A01FC011782168226
:1003E000838181FD03C06FEF7FEFC6C19AE0892E44
:1003F0001E010894211C311CF3012381F20123FD0D
:10040000859123FF81912F01882309F4B2C18532A0
:1004100039F423FD859123FF81912F01853229F441
:1004200090E0B3010E94D703E7CF982FFF24EE247A
:100430009924FFE1FF15D0F09B3269F09C3228F43B
:10044000903259F0933291F40EC09D3249F09033BE
:1004500069F441E024C052E0F52A84E0F82A28C07B
:1004600098E0F92A25C0E0E1FE2A22C0F7FC29C065
:10047000892F80538A3070F4F6FE05C0989C902C2A
:100480001124980E15C0E89CE02C1124E80EF0E22F
:10049000FF2A0EC09E3229F4F6FC6BC140E4F42A18
:1004A00007C09C3619F450E8F52A02C0983649F482
:1004B000F20123FD959123FF91912F01992309F0DA
:1004C000B8CF892F8554833018F08052833038F4A8
:1004D00044E050E0A40EB51E5FE359830FC093368D
:1004E00031F0933779F0933509F056C020C0F5010B
:1004F0008081898342E050E0A40EB51E610101E0D5
:1005000010E012C0F501C080D180F6FC03C06FEF8F
:100510007FEF02C0692D70E042E050E0A40EB51EEE
:10052000C6010E94CC038C015FE7F52214C0F501DF
:10053000C080D180F6FC03C06FEF7FEF02C0692D51
:1005400070E042E050E0A40EB51EC6010E94C10357
:100550008C0150E8F52AF3FE07C01AC080E290E053
:10056000B3010E94D703EA948E2D90E00817190773
:10057000A8F30EC0F601F7FC8591F7FE81916F019B
:1005800090E0B3010E94D703E110EA9401501040BB
:100590000115110579F7EAC0943611F0993669F51D
:1005A000F7FE08C0F501208131814281538184E04A
:1005B00090E00AC0F501808191819C01442737FDBC
:1005C0004095542F82E090E0A80EB91E9FE6F922D4
:1005D00057FF09C050954095309521953F4F4F4F9B
:1005E0005F4FE0E8FE2ACA01B901A1012AE030E02C
:1005F0000E940304D82ED21840C0953729F41F2D2D
:100600001F7E2AE030E01DC01F2D197F9F3661F04C
:10061000903720F4983509F0ACC00FC0903739F00E
:10062000983709F0A6C004C028E030E00AC0106185
:1006300014FD146020E130E004C014FD166020E1D8
:1006400032E017FF08C0F5016081718182819381DA
:1006500044E050E008C0F50180819181BC0180E058
:1006600090E042E050E0A40EB51EA1010E940304F8
:10067000D82ED2188FE7F82EF122F6FE0BC05EEFCF
:10068000F522D91438F4F4FE07C0F2FC05C08FEE51
:10069000F82202C01D2D01C0192DF4FE0DC0FE016F
:1006A000ED0DF11D8081803319F499EEF92208C017
:1006B0001F5FF2FE05C003C08F2D867809F01F5F13
:1006C0000F2DF3FC14C0F0FE0FC01E1510F09D2C72
:1006D0000BC09D2C9E0C911A1E2D06C080E290E04E
:1006E000B3010E94D7031F5F1E15C0F304C01E157F
:1006F00010F4E11A01C0EE2404FF0FC080E390E083
:10070000B3010E94D70302FF1DC001FD03C088E7AB
:1007100090E00EC088E590E00BC0802F867891F0C5
:1007200001FF02C08BE201C080E2F7FC8DE290E0A5
:10073000B3010E94D70306C080E390E0B3010E949A
:10074000D7039A94D914C0F3DA94F101ED0DF11D99
:10075000808190E0B3010E94D703DD20A9F706C095
:1007600080E290E0B3010E94D703EA94EE20C1F743
:1007700043CEF30166817781CB012B96E2E10C94A5
:100780007D04FC010590615070400110D8F7809500
:1007900090958E0F9F1F0895FC016150704001904D
:1007A0000110D8F7809590958E0F9F1F08950F9395
:1007B0001F93CF93DF938C01EB018B8181FF1BC0D3
:1007C00082FF0DC02E813F818C819D8128173907C2
:1007D00064F4E881F9810193F983E88306C0E88530
:1007E000F985802F0995892B31F48E819F8101969F
:1007F0009F838E8302C00FEF1FEFC801DF91CF915F
:100800001F910F910895FA01AA27283051F1203144
:1008100081F1E8946F936E7F6E5F7F4F8F4F9F4F94
:10082000AF4FB1E03ED0B4E03CD0670F781F891FD6
:100830009A1FA11D680F791F8A1F911DA11D6A0FA4
:10084000711D811D911DA11D20D009F468943F9157
:100850002AE0269F11243019305D3193DEF6CF0156
:100860000895462F4770405D4193B3E00FD0C9F71C
:10087000F6CF462F4F70405D4A3318F0495D31FD89
:100880004052419302D0A9F7EACFB4E0A6959795DC
:10089000879577956795BA95C9F7009761057105B2
:1008A00008959B01AC010A2E0694579547953795FC
:1008B0002795BA95C9F7620F731F841F951FA01D56
:1008C00008952F923F924F925F926F927F928F92F4
:1008D0009F92AF92BF92CF92DF92EF92FF920F93CF
:1008E0001F93CF93DF93CDB7DEB7CA1BDB0B0FB6D9
:1008F000F894DEBF0FBECDBF09942A883988488896
:100900005F846E847D848C849B84AA84B984C8842B
:10091000DF80EE80FD800C811B81AA81B981CE0F22
:10092000D11D0FB6F894DEBF0FBECDBFED01089507
:04093000F894FFCF69
:10093400257820000000000000000000660D000083
:10094400005A000012141100580000000000007644
:1009540000000000297D7A696C6B757472000000D8
:100964000070714A45161E26252E363D3E464941E5
:100974004A4C4E0E521C322123242B3433433B4227
:100984004B3A31444D152D1B2C3C2A1D22351A544B
:100994005B5500007069727A6B73746C757D7C7939
:1009A4005A7B714A0506040C030B830A0109780774
:1009B40000000000706C7D71697A75726B740000C0
:1009C40000000000000506040C030B830A010978EB
:1009D400070012590014000000660D0000005A00C0
:1009E400000000000000000000000000760000008D
:1009F40000290000000000005500007C79417B14B0
:100A04004A45161E26252E363D3E464C4C4A55492F
:100A14004A451C322123242B3433433B424B3A3185
:100A2400444D152D1B2C3C2A1D22351A125D5B00EA
:100A34004E541C322123242B3433433B424B3A3152
:100A4400444D152D1B2C3C2A1D22351A0000000094
:100A540071706C7D71697A75726B740000000000AE
:0E0A640000000506040C030B830A0109780745
:00000001FF
