:100000000C9434000C9451000C9451000C94510049
:100010000C9451000C9451000C9451000C9451001C
:100020000C9451000C9451000C9451000C9451000C
:100030000C9451000C9451000C9451000C945100FC
:100040000C9451000C9451000C9451000C945100EC
:100050000C9451000C9451000C9451000C945100DC
:100060000C9451000C94510011241FBECFEFD8E026
:10007000DEBFCDBF12E0A0E0B1E0E6EAFAE002C0E8
:1000800005900D92AE33B107D9F712E0AEE3B2E0BE
:1000900001C01D92AE33B107E1F70E94F1010C944B
:1000A00051050C940000E1ECF0E0808188618083D0
:1000B000E2ECF0E08081866080831092C50089E1E7
:1000C0008093C40008958091C00087FFFCCF809189
:1000D000C6000895982F8091C00085FFFCCF9093B3
:1000E000C60008952D9A88E592E020E931E0F901F3
:1000F0003197F1F70197D9F72D988CE291E020E93B
:1001000031E0F9013197F1F70197D9F70895382FC8
:10011000662361F02AB181E090E002C0880F991F48
:100120003A95E2F7809582238AB908952AB181E051
:1001300090E002C0880F991F3A95E2F7282B2AB960
:1001400008955A985A985298539808954B9902C016
:1001500081E0089589B1869586958095817008958E
:10016000CF93DF93682F2D9A4B9B5DC04A9B5BC05A
:1001700045C06695862F90E09C012170307060FF2D
:1001800002C0529801C0529AFD013197F1F7539A7B
:10019000FE013197F1F75398FD013197F1F7232BC9
:1001A00029F080E0442309F481E0482F5F5F583054
:1001B00001F7442311F0529801C0529A80EC93E069
:1001C000FC013197F1F7539A20E837E0F9013197B4
:1001D000F1F75398FC013197F1F75298FC013197F0
:1001E000F1F7539AF9013197F1F753980197F1F725
:1001F00080E896E10197F1F72D9815C0529A80ECAE
:1002000093E0FC013197F1F7539AE0E8F7E031977A
:10021000F1F753980197F1F741E050E0A0ECB3E01B
:10022000C0E8D7E0A7CFDF91CF910895DF92EF929A
:10023000FF920F931F93182FE62ED42E8B3681F04A
:100240008C3638F48631A9F0863471F08131B9F4F6
:1002500007C0823729F0823790F08457823078F4D3
:10026000EE24FF24F39414C0662389F04423F1F5AF
:1002700008C0662361F0442321F013E038C0EE206B
:1002800031F002E1802F0E94B000FF2402C0FF2461
:1002900002E1DD2019F084E10E94B000FF2019F096
:1002A00080EE0E94B000112319F0812F0E94B0004F
:1002B000FF2019F080EE0E94B000112331F080EF92
:1002C0000E94B000812F0E94B000DD2031F080EF4D
:1002D0000E94B00084E10E94B000EE2051F080EF57
:1002E0000E94B000802F0E94B00003C016E601E11A
:1002F000C9CF1F910F91FF90EF90DF900895CF929B
:10030000DF92EF92FF920F931F93182FE62ED42EB9
:10031000C22E8D3670F48B36B8F48631E9F0873111
:1003200018F48131F9F410C0863489F08936D1F49B
:100330000BC0863728F4843738F4823799F404C028
:100340008A3711F08D3771F4EE2401E015C0662371
:1003500091F04423D9F508C0662369F0442321F0C5
:1003600013E035C0EE2039F022E1F22E8F2D0E94ED
:10037000B00000E003C000E092E1F92EDD2019F0AA
:1003800084E10E94B000002331F080EE0E94B000B2
:1003900080EE0E94B000112341F0CC2019F080EFD4
:1003A0000E94B000812F0E94B000DD2031F080EF6C
:1003B0000E94B00084E10E94B000EE2059F080EF6E
:1003C0000E94B0008F2D0E94B00004C016E681E1AB
:1003D000F82ECCCF1F910F91FF90EF90DF90CF9030
:1003E0000895AF92BF92CF92DF92EF92FF920F9358
:1003F0001F93DF93CF9300D00F92CDB7DEB780E885
:100400008093610010926100259A2D988091C1001F
:1004100088618093C1008091C20086608093C20091
:100420001092C50089E18093C4005A985A98529856
:1004300053985E010894A11CB11C40E0C42E41E019
:10044000D42E3AE1E32E8091C00087FFFCCFF090DC
:10045000C6000F2D10E000D000D000D0EDB7FEB7E1
:100460003196ADB7BEB71296BC92AE921197D382B9
:10047000C282158304830E94790299812DB73EB709
:100480002A5F3F4F0FB6F8943EBF0FBE2DBF80913D
:10049000C00085FFFCCF9093C6009A818091C00078
:1004A00085FFFCCF9093C6009B818091C00085FFA3
:1004B000FCCF9093C600F801EC5FFE4F30E83F158B
:1004C00010F4E058F0408081882361F090E89F1597
:1004D00020F460E040E021E003C060E040E020E084
:1004E0000E947F018E2D8A95F1F78E2D8A95F1F766
:1004F000AACFAEE0B0E0EFE7F2E00C9428050D895A
:100500001E8986E08C831A8309838FEF9FE79E8381
:100510008D839E01275E3F4FCE0101966F89788DB6
:10052000A9010E949D022F813885020F131FF80137
:1005300010822E96E4E00C944405ABE0B0E0E3EAD0
:10054000F2E00C941A053C012B015A01FC011782C0
:100550001682838181FD03C06FEF7FEFC6C19AE0F1
:10056000892E1E010894211C311CF3012381F20104
:1005700023FD859123FF81912F01882309F4B2C1C6
:10058000853239F423FD859123FF81912F01853236
:1005900029F490E0B3010E949004E7CF982FFF2444
:1005A000EE249924FFE1FF15D0F09B3269F09C32D4
:1005B00028F4903259F0933291F40EC09D3249F0F4
:1005C000903369F441E024C052E0F52A84E0F82A2F
:1005D00028C098E0F92A25C0E0E1FE2A22C0F7FCF5
:1005E00029C0892F80538A3070F4F6FE05C0989C8C
:1005F000902C1124980E15C0E89CE02C1124E80ED4
:10060000F0E2FF2A0EC09E3229F4F6FC6BC140E4F2
:10061000F42A07C09C3619F450E8F52A02C098362F
:1006200049F4F20123FD959123FF91912F01992324
:1006300009F0B8CF892F8554833018F08052833069
:1006400038F444E050E0A40EB51E5FE359830FC0B8
:10065000933631F0933779F0933509F056C020C0C6
:10066000F5018081898342E050E0A40EB51E61014E
:1006700001E010E012C0F501C080D180F6FC03C09B
:100680006FEF7FEF02C0692D70E042E050E0A40EF2
:10069000B51EC6010E9485048C015FE7F52214C0D7
:1006A000F501C080D180F6FC03C06FEF7FEF02C080
:1006B000692D70E042E050E0A40EB51EC6010E9414
:1006C0007A048C0150E8F52AF3FE07C01AC080E2D4
:1006D00090E0B3010E949004EA948E2D90E00817F8
:1006E0001907A8F30EC0F601F7FC8591F7FE81917A
:1006F0006F0190E0B3010E949004E110EA94015070
:1007000010400115110579F7EAC0943611F09936B9
:1007100069F5F7FE08C0F5012081318142815381DE
:1007200084E090E00AC0F501808191819C0144271A
:1007300037FD4095542F82E090E0A80EB91E9FE649
:10074000F92257FF09C050954095309521953F4FAC
:100750004F4F5F4FE0E8FE2ACA01B901A1012AE02C
:1007600030E00E94BC04D82ED21840C0953729F43E
:100770001F2D1F7E2AE030E01DC01F2D197F9F36E0
:1007800061F0903720F4983509F0ACC00FC0903775
:1007900039F0983709F0A6C004C028E030E00AC05C
:1007A000106114FD146020E130E004C014FD1660F7
:1007B00020E132E017FF08C0F5016081718182817C
:1007C000938144E050E008C0F50180819181BC0133
:1007D00080E090E042E050E0A40EB51EA1010E942E
:1007E000BC04D82ED2188FE7F82EF122F6FE0BC0EB
:1007F0005EEFF522D91438F4F4FE07C0F2FC05C010
:100800008FEEF82202C01D2D01C0192DF4FE0DC07F
:10081000FE01ED0DF11D8081803319F499EEF9226E
:1008200008C01F5FF2FE05C003C08F2D867809F057
:100830001F5F0F2DF3FC14C0F0FE0FC01E1510F04B
:100840009D2C0BC09D2C9E0C911A1E2D06C080E283
:1008500090E0B3010E9490041F5F1E15C0F304C016
:100860001E1510F4E11A01C0EE2404FF0FC080E34E
:1008700090E0B3010E94900402FF1DC001FD03C07F
:1008800088E790E00EC088E590E00BC0802F867866
:1008900091F001FF02C08BE201C080E2F7FC8DE223
:1008A00090E0B3010E94900406C080E390E0B301A1
:1008B0000E9490049A94D914C0F3DA94F101ED0DDA
:1008C000F11D808190E0B3010E949004DD20A9F722
:1008D00006C080E290E0B3010E949004EA94EE200A
:1008E000C1F743CEF30166817781CB012B96E2E11C
:1008F0000C943605FC010590615070400110D8F74A
:10090000809590958E0F9F1F0895FC016150704057
:1009100001900110D8F7809590958E0F9F1F089534
:100920000F931F93CF93DF938C01EB018B8181FF9A
:100930001BC082FF0DC02E813F818C819D812817B5
:10094000390764F4E881F9810193F983E88306C0EB
:10095000E885F985802F0995892B31F48E819F8157
:1009600001969F838E8302C00FEF1FEFC801DF91B6
:10097000CF911F910F910895FA01AA27283051F1C4
:10098000203181F1E8946F936E7F6E5F7F4F8F4FC0
:100990009F4FAF4FB1E03ED0B4E03CD0670F781F1F
:1009A000891F9A1FA11D680F791F8A1F911DA11D04
:1009B0006A0F711D811D911DA11D20D009F468943D
:1009C0003F912AE0269F11243019305D3193DEF6E5
:1009D000CF010895462F4770405D4193B3E00FD09B
:1009E000C9F7F6CF462F4F70405D4A3318F0495D86
:1009F00031FD4052419302D0A9F7EACFB4E0A69569
:100A00009795879577956795BA95C9F7009761058A
:100A1000710508959B01AC010A2E069457954795E0
:100A200037952795BA95C9F7620F731F841F951FD5
:100A3000A01D08952F923F924F925F926F927F92E6
:100A40008F929F92AF92BF92CF92DF92EF92FF92DE
:100A50000F931F93CF93DF93CDB7DEB7CA1BDB0B8A
:100A60000FB6F894DEBF0FBECDBF09942A8839882F
:100A700048885F846E847D848C849B84AA84B98436
:100A8000C884DF80EE80FD800C811B81AA81B98142
:100A9000CE0FD11D0FB6F894DEBF0FBECDBFED0156
:060AA0000895F894FFCF59
:100AA600257820000000000000000000660D000010
:100AB600005A0000121411005800000000000076D1
:100AC60000000000297D7A696C6B75747200000065
:100AD6000070714A45161E26252E363D3E46494172
:100AE6004A4C4E0E521C322123242B3433433B42B4
:100AF6004B3A31444D152D1B2C3C2A1D22351A54D8
:100B06005B5500007069727A6B73746C757D7C79C5
:100B16005A7B714A0506040C030B830A0109780700
:100B260000000000706C7D71697A75726B7400004C
:100B360000000000000506040C030B830A01097877
:100B4600070012590014000000660D0000005A004C
:100B56000000000000000000000000007600000019
:100B660000290000000000005500007C79417B143C
:100B76004A45161E26252E363D3E464C4C4A5549BC
:100B86004A451C322123242B3433433B424B3A3112
:100B9600444D152D1B2C3C2A1D22351A125D5B0077
:100BA6004E541C322123242B3433433B424B3A31DF
:100BB600444D152D1B2C3C2A1D22351A0000000021
:100BC60071706C7D71697A75726B7400000000003B
:0E0BD60000000506040C030B830A01097807D2
:00000001FF
