:020000040800F2
:1000000000000120DD700008496D00084D6D0008FA
:10001000516D0008556D0008596D00080000000082
:100020000000000000000000000000005D6D0008FE
:10003000616D000800000000656D0008696D000832
:100040002171000821710008217100082171000848
:100050002171000821710008217100082171000838
:100060002171000821710008217100082171000828
:100070002171000821710008217100082171000818
:100080002171000821710008217100082171000808
:1000900021710008217100082171000821710008F8
:1000A00021710008217100082171000821710008E8
:1000B00021710008217100082171000821710008D8
:1000C00021710008217100082171000821710008C8
:1000D00021710008217100082171000821710008B8
:1000E0002171000821710008217100080000000042
:1000F0000000000000000000000000000000000000
:1001000000000000000000002171000821710008BB
:100110002171000821710008217100082171000877
:100120002171000821710008217100082171000867
:10013000217100080000000000000000217100088B
:10014000217100082171000821710008756D0008F7
:10015000000000000000000000000000000000009F
:10016000000000000000000000000000000000008F
:10017000000000000000000000000000000000007F
:10018000000000000000000000000000000000006F
:10019000000000000000000000000000000000005F
:1001A000000000000000000000000000000000004F
:1001B000000000000000000000000000000000003F
:1001C000000000000000000000000000000000002F
:1001D000000000000000000000000000000000001F
:0401E0005FF8E0F1F3
:1001E40010B5054C237833B9044B13B10448AFF36D
:1001F40000800123237010BD0801002000000000CE
:1002040000730008084B10B51BB108490848AFF348
:1002140000800848036803B910BD074B002BFBD0CE
:10022400BDE81040184700BF000000000C0100208A
:1002340000730008080100200000000010B5044607
:1002440001F066FC064BA3FB0030800900F088F83F
:10025400002221464FF0FF3000F044F8002010BD8A
:10026400D34D621008B5074A136843F010031360B6
:10027400032000F025F80020FFF7E0FF06F0ECFC77
:10028400002008BD00200240024A136801331360B5
:10029400704700BF24010020014B1868704700BF5D
:1002A4002401002010B582B00190FFF7F5FF044649
:1002B400FFF7F2FF001B019B9842F9D302B010BD77
:1002C400074AD36823F4E0631B041B0C000200F408
:1002D400E060184340F0BF6040F40030D0607047E5
:1002E40000ED00E030B4164BDB68C3F30223C3F126
:1002F4000704042C28BF04241D1D062D01D9DD1E6E
:1003040000E00025012303FA04F4013C2140A94044
:10031400AB40013B1A400A43002806DA00F00F0004
:100324001201D2B2074B1A5407E01201D2B200F103
:10033400604000F5614080F8002330BC704700BF86
:1003440000ED00E014ED00E0420900F01F0001237D
:1003540003FA00F0014B43F82200704700E100E08B
:100364000138B0F1807F0AD2064B5860F021064A6A
:1003740082F823100020986007221A607047012039
:10038400704700BF10E000E000ED00E0042805D154
:10039400054A136843F0040313607047024A136864
:1003A40023F004031360704710E000E0704700BFBF
:1003B40008B5FFF7FBFF08BDF0B583B0002634464F
:1003C400D5E00122A2400B6813409A4240F0CE804F
:1003D4004D68122D2DD00BD8022D27D003D85DB334
:1003E400012D1ED035E0032D30D0112D1BD030E06F
:1003F400614FBD4220D008D8A7F58017BD421BD05D
:1004040007F58037BD4224D116E05C4FBD4213D0BE
:1004140007F58037BD420FD0A7F58017BD4218D12C
:100424000AE0CE6815E0CE68043612E0CE680836DD
:100434000FE0CE680C360CE08D684DB1012D02D171
:100444000261082605E04261082602E0002600E079
:100454000426FF2B01D8864601E000F1040EFF2B91
:1004640001D8A20002E0A4F108029200DEF80070B4
:100474000F25954027EA050506FA02F22A43CEF82D
:1004840000204A6812F0805F70D03D4A956945F0BB
:1004940001059561926902F001020192019AA7088F
:1004A400BD1C384A52F8255004F0030292004FF064
:1004B4000F0E0EFA02FE25EA0E0E334DA8420DD0A1
:1004C40005F58065A8420BD005F58065A84209D0E2
:1004D40005F58065A84207D1032506E0002504E060
:1004E400012502E0022500E0042505FA02F24EEAA5
:1004F40002020237234D45F827204A6812F4803F50
:1005040005D005F580652A681A432A6004E01F4D6A
:100514002A6822EA03022A604A6812F4003F04D0DF
:100524001A4D6A681A436A6004E0184D6A6822EA40
:1005340003026A604A6812F4801F04D0134DAA684B
:100544001A43AA6004E0114DAA6822EA0302AA60D1
:100554004A6812F4001F04D00C4DEA681343EB60A0
:1005640004E00A4DEA6822EA0303EB6001340F2C2D
:100574007FF627AF03B0F0BD00002110000031105A
:100584000010024000000140000801400004014046
:100594000AB101617047090401617047F8B5076841
:1005A4003A6AC2F34343C2F30A14022B36D102F06F
:1005B4000F069CB3731C03EB8303DA0002449168B7
:1005C40061B305462246384601F06EFD731C99005E
:1005D400C818C2002A44936823449360B20032448A
:1005E400D3002B449A6B22449A6307EB4613D3F847
:1005F40010150B4A0A408AB1D3F8002522F0804234
:1006040042F00042C3F80025B3009919CA002A44F5
:1006140092F83C3083F0010382F83C30F8BD00BF0F
:100624000000F81F2DE9F04184B09DF828609DF882
:100634002C70BDF830E090F87C42012C2FD0044699
:10064400012084F87C024FEA810808EB0105E800E8
:10065400204480F824304D1C05EB85054FEAC50C79
:10066400A444ACF804E080F8251080F82B7002F064
:100674007F0580F82650D50980F8275008EB010043
:10068400C500254485F82860CDF808E00197009658
:10069400206801F0F3FD002384F87C3200E002209E
:1006A40004B0BDE8F08100BF90F87C32012B0BD080
:1006B40010B50446012380F87C32006801F04EFF37
:1006C400002084F87C0210BD02207047002836D038
:1006D400F0B587B0044690F87D3213F0FF0F04D1D3
:1006E400002380F87C3206F0CDFB032384F87D32AE
:1006F400206801F085FC254655F810EB6E460FCDB9
:100704000FC62B683360271D97E80E00704601F072
:100714005DFC0121206801F079FC254655F810EBB9
:100724006E460FCD0FC62B68336097E80E007046F7
:1007340001F0D2FC012384F87D32002001E0012085
:10074400704707B0F0BD00BFF8B59DF81870BDF84C
:1007540020609DF824E08D000D44EC00044484F8EE
:10076400272084F82B303FB94C1C04EB8404E500AB
:1007740005440324AC7106E04C1C04EB8404E5003E
:1007840005440224AC71032B00F2AA80DFE803F0D5
:1007940002A13572012F40F0A380002A40F0A0800E
:1007A40036B901EB8102D3000344012283F83D20D2
:1007B40001EB8102D300034493F83D303BB94B1C59
:1007C40003EB8303DA0002440023937106E04B1C1D
:1007D40003EB8303DA0002440223937101EB8102E9
:1007E400D300034493F84830022B79D001EB810203
:1007F400D300034483F829E072E022BB01EB8102B9
:10080400D300034493F83D303BB94B1C03EB830303
:10081400DA0002440023937106E04B1C03EB8303CC
:10082400DA0002440223937101EB8102D3000344F2
:1008340093F84830022B53D001EB8102D3000344D8
:1008440083F829E04CE001EB8102D300034493F8E0
:100854003C303BB94B1C03EB8303DA000244002316
:1008640093713DE04B1C03EB8303DA000244022343
:10087400937135E0B2B901EB8102D300034493F8DC
:100884003D303BB94B1C03EB8303DA0002440023E5
:10089400937125E04B1C03EB8303DA00024402232B
:1008A40093711DE001EB8102D300034493F83C30C3
:1008B4003BB94B1C03EB8303DA000244002393711E
:1008C4000EE04B1C03EB8303DA0002440223937112
:1008D40006E04B1C03EB8303DA000244002393710C
:1008E4004B1C03EB8303DA000244079B93608C00E8
:1008F4006218D30003445E63002283F848209A639D
:1009040083F8251083F849202144CB0003F120010A
:1009140001440431006801F01DFDF8BD30B583B019
:1009240005460468002301930093D4F840340193EE
:10093400D4F840340093009B23F02E030093019BD2
:1009440013F0020F0DD0019B13F0010F05D0A36922
:1009540023F00053A36106F0BBFA009B43F00203AB
:100964000093019B13F0080F25D0009B43F008036C
:100974000093019B13F0040F12D0019B03F4C023D6
:10098400B3F5802F04D10221286801F009FC03E0AB
:100994000121286801F004FC284606F099FA0AE0CF
:1009A400D4F8403423F02E03C4F840342A68936901
:1009B40043F000539361019B13F0200F03D0009B7D
:1009C40043F020030093009BC4F8403403B030BDCF
:1009D400F8B506460D46076807EB411707F5A0640E
:1009E400A36813F0040F06D00423A360E36843F064
:1009F4000203E36034E0A36813F0200F02D0202345
:100A0400A3602DE0A36813F0080F12D0E36843F04D
:100A14000203E36001EB8102D3000344052283F85F
:100A240049201023A3600823A360006801F096FD09
:100A340016E0A36813F4806F12D0E36843F0020356
:100A4400E360006801F08AFD1023A36005EB8502D2
:100A5400D3003344082283F849204FF48063A36011
:100A6400A36813F4007F0BD0E36843F00203E36050
:100A74002946306801F072FD4FF40073A360F8BD9D
:100A8400A36813F0010F37D0AA002A44D3003344DB
:100A9400012283F8492000215964A26093F82B3085
:100AA4000BB1022B0AD1E36843F00203E360294649
:100AB400306801F053FD1023A36012E0032B10D122
:100AC400D7F8003543F00053C7F8003505EB85022D
:100AD400D3003344012283F848202946304606F0E7
:100AE40003FAAB005919CA00324492F83C3083F03F
:100AF400010382F83C30F8BDA36813F0020F50D014
:100B0400E36823F00203E36005EB8502D30033447A
:100B140093F84930012B07D105EB8502D300334408
:100B2400012283F848202FE0052B07D105EB85022D
:100B3400D3003344052283F8482025E0062B01D056
:100B4400082B21D1AA002A44D30033445A6C511CE7
:100B54005964032A09D9AA002A44D3003344002241
:100B64005A64042283F8482006E005EB8502D3008A
:100B74003344022283F84820D7F8003523F0804319
:100B840043F00043C7F800350223A36005EB850258
:100B9400D300334493F848202946304606F0A4F99C
:100BA400F8BDA36813F0800F17D0E36843F0020385
:100BB400E360AB005919CA003244516C01315164ED
:100BC4002B44DA003244062382F84930294630683F
:100BD40001F0C4FC8023A360F8BDA36813F0100FD8
:100BE40024D005EB8502D300334493F82B30032B38
:100BF40008D1E36843F00203E3602946306801F05A
:100C0400ADFC0AE00BB1022B07D1D7F8003523F075
:100C1400804343F00043C7F8003505EB8505EB003E
:100C24001E44032386F849301023A360F8BD00BF97
:100C3400F8B5036803EB411303F5A064A26812F04E
:100C4400040F06D00423A360E36843F00203E360C7
:100C5400F8BD0E460546A26812F0200F1FD02023CF
:100C6400A36001EB8102D300034493F82930012BE4
:100C740040F02D818F007A18D3000344042283F8B6
:100C84004920E36843F00203E360006801F066FC76
:100C9400B919C8002844022380F84830F8BDA26876
:100CA40012F0400F16D08B005918CA0002440421D8
:100CB40082F849103344DA00024400235364E368A1
:100CC40043F00203E3603146006801F047FC40232F
:100CD400A360F8BDA26812F4007F0AD0E36843F071
:100CE4000203E360006801F039FC4FF40073A36071
:100CF400F8BDA26812F0010F14D08F007A18D30047
:100D0400034400225A64E36843F00203E36000688A
:100D140001F024FC0123A360B919C800284480F819
:100D24004930F8BDA26812F0080F10D00823A36060
:100D3400E36843F00203E360006801F00FFC06EB94
:100D44008601C8002844052380F84930F8BDA2680C
:100D540012F0100F15D08F007A18D300034400222C
:100D64005A64E36843F00203E360006801F0F6FBB1
:100D7400B919C8002844032380F849301023A3601C
:100D8400F8BDA26812F0800F10D0E36843F00203AC
:100D9400E360006801F0E2FB06EB8601C80028442A
:100DA400062380F849308023A360F8BDA26812F4BA
:100DB400806F13D0E36843F00203E360006801F03E
:100DC400CDFB1023A3604FF48063A36006EB860180
:100DD400CB002B44082283F84920F8BDA26812F006
:100DE400020F74D0E26822F00202E26001EB81019A
:100DF400CA00024492F84920012A15D1B2003244B3
:100E0400D3000344012283F8482093F82B30022BAB
:100E140051D1B2003244D300034493F83D2082F010
:100E2400010283F83D2046E0032A07D106EB86023F
:100E3400D3000344022283F848203CE0042A0AD168
:100E4400B2003244D3000344022283F84820002233
:100E540083F829202FE0052A07D106EB8602D30068
:100E64000344052283F8482025E0062A01D0082AF5
:100E740021D1B1003144CA002A44516C481C506449
:100E8400032909D9B1003144CA002A44002151641C
:100E9400042182F8481006E006EB8601CA002A44C1
:100EA400022182F84810D3F8002522F0804242F053
:100EB4000042C3F800250223A36006EB8602D30098
:100EC4002B4493F848203146284606F00DF8F8BD27
:100ED400F8B504460568284601F0FAF8012840F000
:100EE4009480206801F0F0F8002800F08E802068DB
:100EF40001F0EAF810F4001F03D023684FF4001245
:100F04005A61206801F0E0F810F4801F03D02368D0
:100F14004FF480125A61206801F0D6F810F0806F07
:100F240003D023684FF080625A61206801F0CCF846
:100F340010F0020F02D0236802225A61206801F0E7
:100F4400C3F810F0005F10D0D5F8403423F02E031E
:100F5400C5F84034204605F0C1FF0121206801F0A6
:100F64001FF923684FF000525A61206801F0ACF871
:100F740010F0807F02D02046FFF7D0FC206801F0FB
:100F8400A3F810F0080F05D0204605F09BFF236856
:100F940008225A61206801F097F810F0007F21D0F0
:100FA400206801F0CDFA0746002614E00123B3407F
:100FB4003B420FD005EB4613D3F8003513F4004F32
:100FC40004D0F1B22046FFF703FD03E0F1B220465E
:100FD400FFF72EFE0136A3689E42E7D323684FF045
:100FE40000725A61206801F06FF810F0100F0CD0F5
:100FF4002268936923F0100393612046FFF7CEFA29
:101004002268936943F010039361F8BD38B590F8F2
:101014007C32012B0ED00446012580F87C520068F6
:1010240000F0E8FF2946206801F0F4F8002084F875
:101034007C0238BD022038BD90F87C32012B0BD0E5
:1010440010B50446012380F87C32006801F084FB6B
:10105400002084F87C0210BD0220704708B50068A7
:1010640001F0BCF808BD00BF01EB8101CB001844BE
:1010740090F84800704700BF01EB8101CB00184491
:10108400806B704708B5006801F0F2F808BD00BF36
:1010940008B5006801F0E0F808BD00BF30B583B0C2
:1010A4000446036813F0010F00F09680B24B5B68AE
:1010B40003F00C03042B0AD0AF4B5B6803F00C0362
:1010C400082B1BD1AC4B5B6813F4803F16D04FF454
:1010D400003393FAA3F3A84B1A684FF4003393FA3E
:1010E400A3F3B3FA83F303F01F0322FA03F313F019
:1010F400010F71D0A368002B6ED161E3A368B3F52F
:10110400803F05D19C4A136843F48033136026E082
:1011140063B903F1804303F504331A6822F480327F
:101124001A601A6822F480221A6018E0B3F5A02F1E
:101134000CD103F18043A3F53C331A6842F48022B6
:101144001A601A6842F480321A6008E08A4B1A68FE
:1011540022F480321A601A6822F480221A60A3688A
:10116400EBB1FFF799F8054605E0FFF795F8401B4A
:10117400642800F227834FF4003393FAA3F37E4BE1
:101184001A684FF4003393FAA3F3B3FA83F303F02A
:101194001F0322FA03F313F0010FE6D01CE0FFF75C
:1011A4007BF8054605E0FFF777F8401B642800F25A
:1011B4000B834FF4003393FAA3F36F4B1A684FF485
:1011C400003393FAA3F3B3FA83F303F01F0322FA71
:1011D40003F313F0010FE6D1236813F0020F00F0BC
:1011E4009080654B5B6813F00C0F0AD0624B5B6810
:1011F40003F00C03082B27D15F4B5B6813F4803F8B
:1012040022D1022393FAA3F35B4B1A68022393FAC5
:10121400A3F3B3FA83F303F01F0322FA03F313F0E7
:10122400010F03D06369012B40F0D0825248036858
:1012340023F0F801A369F82292FAA2F2B2FA82F238
:1012440093400B4303605CE063699BB3012292FA11
:10125400A2F3B3FA83F39B0003F1844303F58403FD
:101264001A60FFF719F8054605E0FFF715F8401B6B
:10127400022800F2AD82022393FAA3F33E4B1A68CC
:10128400022393FAA3F3B3FA83F303F01F0322FABE
:1012940003F313F0010FE8D03748036823F0F80193
:1012A400A369F82292FAA2F2B2FA82F293400B43B3
:1012B400036026E0012393FAA3F3B3FA83F39B00BC
:1012C40003F1844303F5840300221A60FEF7E4FF6C
:1012D400054605E0FEF7E0FF401B022800F27A8293
:1012E400022393FAA3F3244B1A68022393FAA3F379
:1012F400B3FA83F303F01F0322FA03F313F0010F8D
:10130400E8D1236813F0080F52D0E3693BB30122FC
:1013140092FAA2F3B3FA83F3184941F82320FEF7B3
:10132400BBFF054605E0FEF7B7FF401B022800F2AD
:101334005382022393FAA3F293FAA3F20E4A526A57
:1013440093FAA3F3B3FA83F303F01F0322FA03F32C
:1013540013F0010FE7D00120FEF7A4FF28E00123DA
:1013640093FAA3F3B3FA83F30021044A42F8231057
:10137400FEF792FF054609E0001002408004424255
:10138400FEF78AFF401B022800F22882022393FA08
:10139400A3F293FAA3F2C34A526A93FAA3F3B3FAF9
:1013A40083F303F01F0322FA03F313F0010FE7D1D1
:1013B400236813F0040F00F0A180BA4BDA6942F0FD
:1013C4008052DA61DB6903F080530193019BB64AD2
:1013D400136843F480731360FEF75EFF054605E06F
:1013E400FEF75AFF401B642800F2FA81AE4B1B68DB
:1013F40013F4807FF4D02369012B05D1A94A136A21
:1014040043F00103136222E063B903F1804303F55F
:1014140004331A6A22F001021A621A6A22F00402E0
:101424001A6214E0052B09D19E4B1A6A42F0040299
:101434001A621A6A42F001021A6208E0994B1A6AA7
:1014440022F001021A621A6A22F004021A62236963
:1014540053B3FEF721FF054607E0FEF71DFF401BCF
:1014640041F28833984200F2BD81022393FAA3F239
:1014740093FAA3F3B3FA83F35B0943F00203DBB2F9
:10148400022B02D1874B1A6A01E0864B5A6A022367
:1014940093FAA3F3B3FA83F303F01F0322FA03F3DB
:1014A40013F0010FD9D029E0FEF7F6FE054607E058
:1014B400FEF7F2FE401B41F28833984200F2948119
:1014C400022393FAA3F293FAA3F3B3FA83F35B0927
:1014D40043F00203DBB2022B02D1724B1A6A01E021
:1014E400704B5A6A022393FAA3F3B3FA83F303F01B
:1014F4001F0322FA03F313F0010FD9D1E36A002B7F
:1015040000F0B180674A526812F4803F0BD0654AFC
:10151400526802F00C02082A05D1624AD26A12F417
:10152400803F40F06381022B6ED15E4B1B6813F049
:10153400805F07D05B4BDB6A03F0F003626B93427E
:1015440040F056814FF0806393FAA3F3B3FA83F328
:101554009B0003F1844303F5840300221A60FEF721
:101564009BFE054605E0FEF797FE401B642800F24B
:1015740041814FF0006393FAA3F34A4B1A684FF08A
:10158400006393FAA3F3B3FA83F303F01F0322FA7D
:1015940003F313F0010FE6D1424BDA6A22F0F001B3
:1015A400626B0A43DA62DA6A22F47061226B0A43DC
:1015B400DA624FF0806393FAA3F3B3FA83F39B00E8
:1015C40003F1844303F5840301221A60FEF764FEE9
:1015D400054605E0FEF760FE401B642800F20C811E
:1015E4004FF0006393FAA3F32E4B1A684FF0006395
:1015F40093FAA3F3B3FA83F303F01F0322FA03F37A
:1016040013F0010FE6D02EE0264AD36A23F4803388
:10161400D3624FF0806393FAA3F3B3FA83F39B008E
:1016240003F1844303F5840300221A60FEF734FEB9
:10163400054605E0FEF730FE401B642800F2DE801C
:101644004FF0006393FAA3F3164B1A684FF000634C
:1016540093FAA3F3B3FA83F303F01F0322FA03F319
:1016640013F0010FE6D1236A002B00F0C9800D4A64
:10167400526802F00C02082A00F0C480022B74D1D4
:101684004FF0807393FAA3F3B3FA83F39B0003F14F
:10169400844303F5840300221A60FEF7FDFD05462A
:1016A4000AE000BF0010024000700040FEF7F4FDA5
:1016B400401B022800F2A8804FF0007393FAA3F3B2
:1016C400554B1A684FF0007393FAA3F3B3FA83F3FC
:1016D40003F01F0322FA03F313F0010FE6D1636A48
:1016E400B3F5803F0DD103F1804303F58833D96A04
:1016F40062680A43DA62DA6A22F00F01E2680A4396
:10170400DA624548436823F47411636AA26A134396
:101714000B4343604FF0807393FAA3F3B3FA83F35C
:101724009B0003F1844303F5840301221A60FEF74E
:10173400B3FD044604E0FEF7AFFD001B022865D8A4
:101744004FF0007393FAA3F3334B1A684FF000730E
:1017540093FAA3F3B3FA83F303F01F0322FA03F318
:1017640013F0010FE7D0002053E04FF0807393FA99
:10177400A3F3B3FA83F39B0003F1844303F58403D7
:1017840000221A60FEF788FD044604E0FEF784FD9B
:10179400001B02283CD84FF0007393FAA3F31E4BAE
:1017A4001A684FF0007393FAA3F3B3FA83F303F0C8
:1017B4001F0322FA03F313F0010FE7D1002028E0FE
:1017C400012026E0032024E0032022E0012020E081
:1017D40003201EE003201CE003201AE0032018E08D
:1017E400032016E0032014E0032012E0012010E09F
:1017F40001200EE003200CE003200AE0032008E0AF
:10180400002006E0012004E0032002E0032000E0C1
:10181400032003B030BD00BF0010024010B489B0F3
:101824003D4B05AC186859689A6807C401AC53F875
:101834000C0F59689A68DB680FC4384B5B6803F077
:101844000C02042A02D0082A02D060E034485FE087
:1018540003F470114FF4701292FAA2F2B2FA82F207
:1018640021FA02F208A90A4412F80C1C13F4803F6E
:1018740049D02A4CE36A03F00F020F2393FAA3F32F
:10188400B3FA83F322FA03F308AA134413F81C0CE3
:10189400E36A13F4803F20D0E36A03F0F002F023FC
:1018A40093FAA3F3B3FA83F322FA03F30133E46A5A
:1018B40004F470624FF4706494FAA4F4B4FA84F4F7
:1018C40022FA04F40234164AB2FBF3F303FB04F3E2
:1018D400B3FBF0F000FB01F004E0114BB3FBF0F0BC
:1018E40000FB01F04FF4701393FAA3F3B3FA83F2FD
:1018F4004FF45013D34008AA134413F80C3C9942F4
:1019040006D1400804E0074800FB01F000E0064867
:1019140009B010BC704700BF1873000800100240E3
:10192400001BB70000093D0000127A0070B5744B2B
:101934001B6803F007038B420BD2714A136823F030
:1019440007030B431360136803F00703994240F045
:10195400C680036813F0020F06D06A4C636823F054
:10196400F0028368134363600D460446036813F072
:10197400010F75D04268012A13D14FF4003393FA52
:10198400A3F3604B19684FF4003393FAA3F3B3FA4B
:1019940083F303F01F0321FA03F313F0010F27D19C
:1019A4009FE0022A13D14FF0007393FAA3F3554B2F
:1019B40019684FF0007393FAA3F3B3FA83F303F0B7
:1019C4001F0321FA03F313F0010F11D18BE002235B
:1019D40093FAA3F34B4B1968022393FAA3F3B3FAD4
:1019E40083F303F01F0321FA03F313F0010F7CD0F8
:1019F40044494B6823F0030313434B60FEF74CFC4C
:101A040006466368012B0ED106E0FEF745FC801BF9
:101A140041F2883398426AD83A4B5B6803F00C036E
:101A2400042BF2D11CE0022B15D106E0FEF734FCA6
:101A3400801B41F2883398425BD8324B5B6803F0D9
:101A44000C03082BF2D10BE0FEF726FC801B41F2BD
:101A5400883398424FD82B4B5B6813F00C0FF3D1AB
:101A6400274B1B6803F007039D420AD2244A1368DC
:101A740023F007032B431360136803F007039D420D
:101A84003BD1236813F0040F06D01E494B6823F49E
:101A9400E062E36813434B60236813F0080F07D038
:101AA400184A536823F46053216943EAC10353601D
:101AB400FFF7B4FE134B5B6803F0F002F02393FAD4
:101AC400A3F3B3FA83F322FA03F30F4AD35CD840A7
:101AD4000E4B18600020FEF7B1FB002070BD012002
:101AE40070BD012070BD012070BD012070BD0320B8
:101AF40070BD032070BD032070BD012070BD00BF08
:101B04000020024000100240FC770008A0000020E2
:101B1400014B1868704700BFA000002008B5FFF70C
:101B2400F7FF084B5B6803F4E0624FF4E06393FA59
:101B3400A3F3B3FA83F322FA03F3034AD35CD84042
:101B440008BD00BF001002400C78000808B5FFF77C
:101B5400DFFF084B5B6803F460524FF4605393FA61
:101B6400A3F3B3FA83F322FA03F3034AD35CD84012
:101B740008BD00BF001002400C780008F0B583B027
:101B84000446036813F0010F71D0864BDA6942F002
:101B94008052DA61DB6903F080530193019B824A2E
:101BA400136843F480731360FEF776FB054605E083
:101BB400FEF772FB401B642800F2E7807A4B1B6837
:101BC40013F4807FF4D0774B1B6A13F4407347D02F
:101BD400626802F44072934242D07248016A21F46E
:101BE40040764FF4803393FAA3F2B2FA82F26F4D47
:101BF400012745F8227093FAA3F3B3FA83F3002282
:101C040045F82320066211F0010F29D0FEF744FBAA
:101C1400054607E0FEF740FB401B41F2883398423B
:101C240000F2B580022393FAA3F293FAA3F3B3FA72
:101C340083F35B0943F00203DBB2022B02D1594B5D
:101C44001A6A01E0574B5A6A022393FAA3F3B3FAD0
:101C540083F303F01F0322FA03F313F0010FD9D027
:101C640050490B6A23F44072636813430B62236880
:101C740013F0020F06D04B494B6823F44042A3688B
:101C840013434B60236813F0040F06D04549CB6A15
:101C940023F40032E3681343CB62236813F0080F84
:101CA40006D04049CB6A23F4802223691343CB62D4
:101CB4003C4BDB6A13F4003F06D13A4BDB6A13F466
:101CC400802F03D1002302E0012300E00123002B35
:101CD4004ED0344B1B6813F0805F42D1314B1B68EC
:101CE40013F0806F06D02F4BDB6A03F0F003A26978
:101CF40093424ED12B4BDA6A22F0F001A2690A43D7
:101D0400DA62DA6A22F4704162690A43DA624FF0F5
:101D1400805393FAA3F3B3FA83F39B0003F1844350
:101D240003F5840301221A60FEF7B6FA054604E0BF
:101D3400FEF7B2FA401B64282DD84FF0005393FAF3
:101D4400A3F3184B1A684FF0005393FAA3F3B3FAB2
:101D540083F303F01F0322FA03F313F0010FE7D018
:101D640006E0104BDB6A03F470436269934214D1BA
:101D7400236813F0100F12D00A494B6823F4800231
:101D8400E36913434B6000200AE0032008E00320CA
:101D940006E0012004E0032002E0012000E000202E
:101DA40003B0F0BD00100240007000400004424245
:101DB4002DE9F843814601680B6923F44052C36856
:101DC40013430B618168036919434369194300682C
:101DD400C26822F4B05323F00C030B43C360D9F858
:101DE40000104B6923F44072D9F8183013434B6147
:101DF400D9F800505B4B9D4259D1FFF7A7FE00EB89
:101E0400800000EB8000D9F80440A400B0FBF4F497
:101E1400554EA6FB043464092401FFF797FE00EB3A
:101E2400800000EB8000D9F804309B00B0FBF3F78E
:101E3400FFF78CFE00EB800000EB8000D9F8043043
:101E44009B00B0FBF3F3A6FB03235B094FF064088C
:101E540008FB13731B013233A6FB03235B0903F056
:101E6400F0031C44FFF772FE00EB800000EB8000DF
:101E7400D9F804309B00B0FBF3F7FFF767FE00EBE3
:101E8400800000EB8000D9F804309B00B0FBF3F332
:101E9400A6FB03235B0908FB13731B013233A6FB68
:101EA4000323C3F343131C44AC60BDE8F883FFF77A
:101EB40035FE00EB800000EB8000D9F80440A4005C
:101EC400B0FBF4F4284EA6FB043464092401FFF7A4
:101ED40025FE00EB800000EB8000D9F804309B0065
:101EE400B0FBF3F7FFF71AFE00EB800000EB800075
:101EF400D9F804309B00B0FBF3F3A6FB03235B0982
:101F04004FF0640808FB13731B013233A6FB032351
:101F14005B0903F0F0031C44FFF700FE00EB8000B4
:101F240000EB8000D9F804309B00B0FBF3F7FFF717
:101F3400F5FD00EB800000EB8000D9F804309B0035
:101F4400B0FBF3F3A6FB03235B0908FB13731B012C
:101F54003233A6FB0323C3F343131C44AC60BDE834
:101F6400F88300BF003801401F85EB5158B310B50A
:101F7400044690F8393013F0FF0F04D1002380F8A1
:101F8400383004F0B1FE022384F839302268D36873
:101F940023F40053D3602046FFF70AFF2268136935
:101FA40023F4904313612268536923F02A03536195
:101FB4002268D36843F40053D3600020E063012314
:101FC40084F8393010BD0120704700BF84B038B5A3
:101FD400044605AD85E80E00C36843F04003C360C2
:101FE40000F03EFC4FF48033A3630020BDE838408A
:101FF40004B07047836843F0010383600020704796
:10200400836823F0010383600020704708B5C36828
:1020140023F0C043C360012904D1C36843F00053D3
:10202400C36004E019B9C36843F08043C36032203D
:10203400FEF738F9002008BD890141F02001016153
:1020440000230133054A934205D8026912F0200F98
:10205400F7D1002070470320704700BF400D0300F4
:102064001023036100230133054A934205D8026912
:1020740012F0100FF7D1002070470320704700BF03
:10208400400D030070B403339B10002507E000EB00
:10209400023404F5805451F8046B266001359D42E6
:1020A400F5D3002070BC704710B4033292100023A3
:1020B40005E000F58054246841F8044B0133934251
:1020C400F7D3084610BC70474269806910407047D6
:1020D400406900F00100704784B038B5044605A893
:1020E40080E80E0025460023C4F8003EA36B23F4C9
:1020F4008023A363A36B23F40023A363079B032B15
:1021040009D1B4F1A04F06D0D4F8003443F004034D
:10211400C4F8003405E0D4F8003423F00403C4F810
:10212400003410212046FFF787FF2046FFF798FF71
:10213400002209E005EB42134FF0FF31C3F8081504
:102144000021C3F80C150132069B9A42F2D30121F7
:10215400204600F05FF8C820FEF7A4F80023A3612E
:102164004FF0FF336361B4F1A04F07D18023636262
:1021740003F5C003A362084BC4F80031A36943F01C
:102184001003A361A269054B1343A3610020BDE8BA
:10219400384004B0704700BFE0004000080020A3AE
:1021A40010B400F58064D0F8003423F00303C0F8C1
:1021B4000034D0F8003401F003021343C0F80034B3
:1021C400012903D14BF68033636004E0022902D174
:1021D40041F270736360002010BC704730B583B067
:1021E400044600250195D0F840340193019B23F067
:1021F4002E030193019B43F48073C0F840340A20FA
:10220400FEF750F8019B23F48073C4F84034284649
:1022140003B030BD82B000230193D0F84034019361
:10222400019B23F02E030193019B13F4805F06D1DD
:10223400012904D1019B43F48053C0F84034019B2D
:1022440013F4805F05D021B9019B23F48053C0F8B7
:102254004034002002B0704782B000230193D0F8CC
:10226400403401930198C0F3414002B0704700BF6D
:1022740000F58060806880B2704700BFF0B59DF8BB
:10228400184000EB411505F5A0664FF0FF37B76025
:10229400032C23D8DFE804F00218020D40F29D4716
:1022A400F76012F0800F19D0F76847F48077F76071
:1022B40014E040F29D67F76012F0800F0ED0F768CB
:1022C40047F48077F76009E040F22527F76012F0C1
:1022D400800F03D0F76847F4C077F76000F5806E8D
:1022E400D0F81864012707FA01F13143C0F8181433
:1022F400816941F0007181619B0503F0FE53D102B5
:1023040001F4F0410B4312F0800F02D04FF400426D
:1023140000E0002213439DF81420022A02D14FF456
:10232400003200E000221343A20402F440221343CB
:10233400BDF81C20C2F30A021343C5F80035032C70
:1023440005D1D5F8003543F00053C5F80035002019
:10235400F0BD00BF80B586B000AF7860396000235F
:102364007B7500237B820023FB824FF480733B82C6
:102374000023FB603B681B69002B19D03B681B6979
:102384003A6812891344013B3A681289B3FBF2F3A9
:10239400FB82FA8A3B8A9A420CD93B8AFB82FB8AEB
:1023A4003A68128902FB03F31A463B681A6101E09A
:1023B4000123FB823B68DB78002B07D0FB8A3A6859
:1023C400128902FB03F31A463B681A613B685B7887
:1023D4005A017B68134403F5A06319463B681B69E3
:1023E400C3F31202FB8ADB041846544B03401A431E
:1023F4003B689B7A5B0703F0C04313430B617B6824
:1024040003F580639B6803F00103002B0CBF0123D9
:102414000023DBB27B753B685B785A017B6813440D
:1024240003F5A06319463B685B785A017B68134443
:1024340003F5A0631B6823F000530B603B685B78D3
:102444005A017B68134403F5A06319463B685B7823
:102454005A017B68134403F5A0631B687A7D520715
:1024640013430B603B685B785A017B68134403F5A4
:10247400A0631B68FB60FB6823F08043FB60FB6880
:1024840043F00043FB603B685B785A017B6813446C
:1024940003F5A0631A46FB6813603B68DB78002BE6
:1024A40047D13B681B69002B43D03B68DB79032B86
:1024B40030D801A252F823F0CD240008F1240008FA
:1024C400CD240008F12400083B681B6903339B08F2
:1024D4007B827A8A7B68DB6A9BB29A421CD97B68CE
:1024E4009B6943F020027B689A6115E03B681B6995
:1024F40003339B087B827A8A7B6803F580631B69BC
:102504009BB29A420AD97B689B6943F080627B68DC
:102514009A6103E000BF02E000BF00E000BF3B6837
:10252400D9683B685A783B681B699BB27868FFF7A7
:10253400A9FD002318461837BD4680BD0000F81FCA
:1025440080B483B000AF78607B6803F580635B6917
:102554009BB218460C37BD4680BC704780B485B02A
:1025640000AF78600B46FB700023FB60FB785A01D8
:102574007B68134403F5A0631B68FB785A017B68EE
:10258400134403F5A0631B6803F40023002B6DD0F0
:10259400FB785A017B68134403F5A0631946FB7862
:1025A4005A017B68134403F5A0631B6843F080431E
:1025B4000B607B68DB6A9BB2002B43D1FB785A012A
:1025C4007B68134403F5A0631946FB785A017B68C2
:1025D400134403F5A0631B6823F000430B60FB78EE
:1025E4005A017B68134403F5A0631946FB785A012A
:1025F4007B68134403F5A0631B6843F000430B603E
:10260400FB785A017B68134403F5A0631946FB78F1
:102614005A017B68134403F5A0631B6823F4004349
:102624000B60FB680133FB60FB68B3F57A7F1BD852
:10263400FB785A017B68134403F5A0631B68002BE5
:10264400EFDB82E0FB785A017B68134403F5A06357
:102654001946FB785A017B68134403F5A0631B6891
:1026640043F000430B6070E000BF6EE0FB785A015A
:102674007B68134403F5A0631946FB785A017B6811
:10268400134403F5A0631B6843F080430B607B682D
:1026940003F580631B699BB2002B43D1FB785A017D
:1026A4007B68134403F5A0631946FB785A017B68E1
:1026B400134403F5A0631B6823F000430B60FB780D
:1026C4005A017B68134403F5A0631946FB785A0149
:1026D4007B68134403F5A0631B6843F000430B605D
:1026E400FB785A017B68134403F5A0631946FB7811
:1026F4005A017B68134403F5A0631B6823F4004369
:102704000B60FB680133FB60FB68B3F57A7F1BD871
:10271400FB785A017B68134403F5A0631B68002B04
:10272400EFDB12E0FB785A017B68134403F5A063E6
:102734001946FB785A017B68134403F5A0631B68B0
:1027440043F000430B6000E000BF00231846143739
:10275400BD4680BC704700BF80B586B000AF7860CE
:1027640000233B610023FB607868FFF749FC1021DC
:102774007868FFF761FC7868FFF772FC0023FB754B
:102784001FE0FB7D5A017B68134403F5A0631B68BB
:10279400FB60FB6843F08043FB60FB6823F000436D
:1027A400FB60FB6823F40043FB60FB7D5A017B68FC
:1027B400134403F5A0631A46FB681360FB7D0133E1
:1027C400FB75FB7D0F2BDCD90023FB7531E0FB7D12
:1027D4005A017B68134403F5A0631B68FB60FB6824
:1027E40043F08043FB60FB6843F00043FB60FB68FD
:1027F40023F40043FB60FB7D5A017B68134403F51B
:10280400A0631A46FB6813603B6901333B613B6973
:10281400B3F57A7F09D8FB7D5A017B68134403F52D
:10282400A0631B68002BEFDB00E000BFFB7D0133DE
:10283400FB75FB7D0F2BCAD97B6803F580631A46B1
:102844004FF0FF3353617B684FF0FF325A61786871
:10285400FFF7D0FB002318461837BD4680BD00BFE4
:1028640080B485B000AF78600023FB60FB6801335F
:10287400FB60FB68124A934201D903231BE07B6887
:102884001B69002BF2DA0023FB607B681B6943F0B1
:1028940001027B681A61FB680133FB60FB68084A2C
:1028A400934201D9032306E07B681B6903F001030B
:1028B400002BF0D1002318461437BD4680BC704766
:1028C400400D030000207047F0B5D0F84435DD69B1
:1028D4000024234638E0322202FB030292F841230B
:1028E400012A2FD1322202FB030292F84223022A48
:1028F40028D1322202FB030292F8482312F0800FFF
:1029040020D0322606FB0306B6F84A63D6B1A700E8
:1029140007EB040E4FEA4E06B6462E44B27132223D
:1029240002FB0301B1F84A23328191F83E23F2728B
:1029340091F83F23B27291F84C23F2810122327351
:102944001444E4B20133DBB2092BC4D90CB902201C
:10295400F0BD0020F0BD00BFF0B5D0F84435DD690E
:10296400002423463FE0322202FB030292F8412373
:10297400012A36D1322202FB030292F84223022AB0
:102984002FD1322202FB030292F8486316F0800F23
:1029940027D1322202FB0302B2F84A230AB3A7006A
:1029A40007EB040E4FEA4E0296462A4482F838603A
:1029B400322606FB0301B1F84A63568791F83E6359
:1029C40082F83D6091F83F6382F83C6091F84C13C3
:1029D400A2F8401071462944012281F83E20144493
:1029E400E4B20133DBB2092BBDD90CB90220F0BD2E
:1029F4000020F0BD01293BD19378013B052B4FD832
:102A0400DFE803F003050E2C2218026048E0B0F85A
:102A14007E30591CA0F87E1000EB830042603FE03A
:102A2400B0F88030591CA0F88010043300EB830008
:102A3400426035E0B0F88230591CA0F882100833A7
:102A440000EB830042602BE0B0F88430591CA0F8FE
:102A54008410103300EB8300426021E0B0F886302C
:102A6400591CA0F886100C3300EB8300426017E079
:102A7400022915D19378012B02D0022B07D00FE045
:102A8400B0F87C300A3300EBC300426008E0B0F8D1
:102A94007C30591CA0F87C100A3300EBC300826020
:102AA4000020704730B4D0F84435DC69002310E0CE
:102AB400184603F1220204EB8202926815798D42D2
:102AC40005D1D3781B0443F4C063184353E00133A6
:102AD400DBB29AB2B4F8EE008242E9D3002313E0E9
:102AE400184603F1260204EB820292685579A94242
:102AF40002D09579A94205D1D3781B0443F48063AD
:102B0400184338E00133DBB29AB2B4F8F2008242DF
:102B1400E6D3002310E0184603F12A0204EB8202F4
:102B240092685579A94205D1D3781B0443F4A06374
:102B3400184320E00133DBB29AB2B4F8F0008242C9
:102B4400E9D3002310E0184603F11E0204EB8202CD
:102B54009268D579A94205D1D3781B0443F4407314
:102B6400184308E00133DBB29AB2B4F8EC008242B5
:102B7400E9D34FF0FF3030BC704700BF70B5054655
:102B8400D0F84435DC69002313E003F11A0204EBA6
:102B9400820290680279417902EB012240F201211C
:102BA4008A4204D1C178C37984F8513107E00133F2
:102BB400DBB29AB2B4F8EA108A42E6D3002128467E
:102BC400FFF770FFC6B2C0F30723C0F30741DA1E54
:102BD400032A0ED8DFE802F00B05080284F84F61DF
:102BE40007E084F84D6104E084F84E6101E084F864
:102BF4005061032B01D00028E1D1002070BD00BF3B
:102C040070B50546D0F84435DC69002313E003F1C0
:102C14001A0204EB820290680279417902EB0122E4
:102C240040F201118A4204D1C178C37984F8093190
:102C340007E00133DBB29AB2B4F8EA108A42E6D371
:102C4400002100230CE003F1170204EBC202926896
:102C5400D278914202D184F8043106E00133DBB228
:102C64009AB2B4F8E8008242EDD32846FFF71AFF7F
:102C7400C6B2C0F30722C0F30741D31E032B1BD8EF
:102C8400DFE803F00B05080284F8076114E084F818
:102C9400056111E084F806610EE084F80861C3B2AE
:102CA4001E3304EB83039E683379767903EB0623A2
:102CB40040F20316B34205D1032A05D00028D4D12B
:102CC400022070BD002070BD022070BD10B51446F6
:102CD40022220274012242744FF480724282818261
:102CE4000322C282214603F0CBFB10BDF8B5D0F815
:102CF4004445E469022902D006290AD015E0236F6D
:102D0400DD782D020023A4F8903101264FF480775A
:102D14000BE0223204EB82029268D5782D029DF8F2
:102D2400187047EA0327BDF81C60212303740123AC
:102D3400437447828582C682324604F5C87103F023
:102D44009FFBF8BD10B582B0D0F84445E469A4F8FF
:102D540090310223019300920A460621FFF7C6FF31
:102D640002B010BD10B5D0F84435DC69012902D099
:102D7400022908D00EE0D4F83831D4F834211344B1
:102D8400C4F8343106E0D4F83821D4F834319B1A2D
:102D9400C4F83431D4F83421D4F830319A4201D90A
:102DA400C4F83431D4F83421D4F82C319A4201D205
:102DB400C4F83431B4F8343194F8A12194F8A01152
:102DC400FFF7C0FF012814D094F8A131012B09D1D9
:102DD40094F8073184F8A03194F8093184F8A131CA
:102DE400002003E0013B84F8A13101200623637035
:102DF40010BD012010BD00BF38B5BDF81440D0F897
:102E04004455ED69032918D006290BD002291CD199
:102E14002B6FDA7812020023A5F8903101244FF4C5
:102E2400807315E0223205EB82029268D278120296
:102E34009DF8101041EA03230AE0D5F88030DA78CF
:102E4400120201244FF4807302E000242246234638
:102E5400A12101748121417443828282C482224669
:102E640005F5C87103F00CFB38BD00BF38B5BDF8DB
:102E74001440D0F84455ED69032918D006290BD025
:102E840002291CD12B6FDA7812020023A5F89031A5
:102E940001244FF4807315E0223205EB820292681C
:102EA400D27812029DF8101041EA03230AE0D5F803
:102EB4008030DA78120201244FF4807302E0002497
:102EC40022462346A12101748221417443828282D5
:102ED400C482224605F5C87103F0D2FA38BD00BF9A
:102EE40038B5BDF81440D0F84455ED69032918D01D
:102EF40006290BD002291CD12B6FDA781202002389
:102F0400A5F8903101244FF4807315E0223205EBCB
:102F140082029268D27812029DF8101041EA0323CB
:102F24000AE0D5F88030DA78120201244FF4807375
:102F340002E0002422462346A12101748321417426
:102F440043828282C482224605F5C87103F098FA4E
:102F540038BD00BF38B5BDF81440D0F84455ED690C
:102F6400032918D006290BD002291CD12B6FDA783B
:102F740012020023A5F8903101244FF4807315E068
:102F8400223205EB82029268D27812029DF8101068
:102F940041EA03230AE0D5F88030DA7812020124EA
:102FA4004FF4807302E0002422462346A1210174D9
:102FB4008421417443828282C482224605F5C87109
:102FC40003F05EFA38BD00BF10B582B0D0F84435C6
:102FD400DC696378043B042B04D8DFE803F01A2F80
:102FE400054C6100012066E00223019300920A4629
:102FF4000621FFF701FF012854D00423637094F8DD
:10300400903194F8912103EB0223C4F83431012068
:1030140051E00223019300920A460621FFF726FF9E
:10302400012841D00523637094F8903194F89121DC
:1030340003EB0223C4F82C3101203CE0022301936A
:1030440000920A460621FFF74BFF01282ED00723E2
:10305400637094F8903194F8912103EB0223C4F83F
:103064003031D4F82C21934222D24FF47F43C4F858
:10307400303101201FE00223019300920A46062109
:10308400FFF768FF012815D00823637094F8903186
:1030940094F8912103EB0223C4F8383101200AE0AB
:1030A400002008E0012006E0012004E0012002E005
:1030B400012000E0012002B010BD00BF10B5D0F81F
:1030C4004435DC6994F8A12194F8A011FFF77CFF42
:1030D400012812D094F8A131012B07D194F80731BB
:1030E40084F8A031002084F8A10103E0013B84F8B6
:1030F400A13101200623637010BD012010BD00BF63
:1031040038B50546D0F84435DC69E378013B042B37
:1031140054D8DFE803F0032053454C00D0F8883539
:1031240013F0010F4CD1D0F88835C4F88C3194F8E1
:103134008A3194F8862104F5C87103F0C9FA94F829
:10314400073184F8A03194F8093184F8A1310223BD
:10315400E370012038BD94F88A1103F07DFF012843
:1031640006D194F890112846FFF7FCFD012829D0D8
:10317400D5F88835D4F88C219B1A94F88B21934286
:1031840022D3D5F88835C4F88C3194F88A3194F870
:10319400862104F5C871284603F09AFA012038BD47
:1031A4000121FFF7DFFD88B90123E37038BD022157
:1031B400FFF7D8FD60B90123E37038BD012038BDA5
:1031C400012038BD012038BD012038BD012038BDA3
:1031D400012038BD10B5D0F84435DC692378013BB3
:1031E400062B6DD8DFE803F0046404173E51360063
:1031F40094F84231012B0AD1002294F8401103F0D3
:10320400E7F900285ED104232370012010BD0423B4
:103214002370012010BD94F8FA30012B14D1002240
:1032240094F8F81003F0D4F900284DD10723237043
:103234000623637094F8073184F8A03194F80931B7
:1032440084F8A131012010BD072323700623637085
:10325400012010BDFFF732FF002837D1052323706A
:10326400012010BD94F84231012B0AD194F8412178
:1032740094F8401103F0ACF950BB062323700120ED
:1032840010BD06232370012010BD94F8FA30012BE1
:103294000AD194F8F92094F8F81003F099F9C8B910
:1032A40002232370012010BD02232370012010BDCE
:1032B4000123A370D0F8943502219847002010BD53
:1032C400012010BD012010BD012010BD012010BD42
:1032D400012010BD012010BD38B50546D0F8443595
:1032E400DC6994F8431149B103F038FA94F84311B6
:1032F400284603F04BFA002384F8433194F8FB107A
:1033040051B1284603F02AFA94F8FB10284603F03A
:103314003DFA002384F8FB3094F88A1151B1284611
:1033240003F01CFA94F88A11284603F02FFA0023BC
:1033340084F88A31D5F84435D86928B103F0F8FE09
:10334400D5F844350022DA61002038BD38B504468A
:10335400D0F84435DD69FF230122114602F07CFDDB
:10336400FF2830D1022038BD1946322202FB034225
:1033740092F84123032A23D1322202FB0342B2F8FA
:103384004A23EAB1322202FB034292F8482312F0A4
:10339400800F15D085F88421322303FB0141B1F855
:1033A4004A33A5F8863191F83E3385F8883191F88F
:1033B4004C3385F88B31012385F88931002038BDE1
:1033C4000133DBB200E00023092BCDD9022038BD44
:1033D4002DE9F04182B00546D0F84435DF6900F1AB
:1033E4001C040923ADF806300020A7F8EE00A7F866
:1033F400EA00A7F8EC00A7F8E8000646804622E0B9
:103404000DF10601204602F0CFFF04464378042B59
:1034140002D0242B09D016E081784EB2C278284617
:1034240002F042FD4FFA80F80DE095F836339E42E3
:1034340009DC322303FB0853024693F8421307F1D5
:103444006C00FFF7D7FAB5F83423BDF806309A427A
:10345400D6D8002002B0BDE8F08100BFF0B585B039
:10346400054600230122114602F0F6FCFF2800F075
:10347400F980D5F844454FF4D27003F051FEE06171
:10348400D5F84435DC694FF4D2720021204603F0AC
:1034940062FE2846FFF718FA06462846FFF75CFA4C
:1034A400022E62D1022800F0DF8000273E463B4610
:1034B4005EE0194603EB83004200224492F83E206A
:1034C400012A21D103EB830042002244508F86421B
:1034D4001AD29E001E447200224492F83D6084F881
:1034E400F86092F83C6084F8F96092F8386084F8E7
:1034F400F460568FA4F8F660B2F8402084F8FC20FB
:10350400012284F8FA20064601EB8100420022449D
:10351400127B012A26D101EB81004200224410894A
:1035240087421FD28F0007EB010E4FEA4E0222445E
:1035340092F80BE084F840E192F80AE084F841E163
:1035440092F806E084F83CE11289A4F83E2139445B
:103554004A002244B2F8402084F84421012284F82D
:10356400422107460133DBB202E000273E463B46D8
:10357400042B9ED92846FFF7E9FE10B9012384F8ED
:1035840089312846FFF724FF94F8FA30012B1FD124
:103594002846FFF735FB94F8F410284603F0E4F8C6
:1035A400014684F8FB0095F81C3394F8F420B4F831
:1035B400F60002900120019095F81D030090284622
:1035C40003F0BCF8002294F8FB10284603F050FDE9
:1035D40094F84231012B1FD12846FFF7CFFA94F813
:1035E4003C11284603F0C0F8014684F8430195F8DD
:1035F4001C3394F83C21B4F83E0102900120019060
:1036040095F81D030090284603F098F8002294F8DA
:103614004311284603F02CFD94F88931012B1CD169
:1036240094F88411284603F09FF8014684F88A012F
:1036340095F81C3394F88421B4F886010290032091
:10364400019095F81D030090284603F077F80022B6
:1036540094F88A11284603F00BFD01232370E370CC
:10366400002002E0022000E0022005B0F0BD00BF0F
:10367400704700BF704700BF38B50546D0F84435E1
:10368400DC692379012B02D0022B1ED061E0D0F833
:10369400883513F0010F5CD1D0F88835C4F80031B7
:1036A4000223237194F8FB30B4F82021D4F81011CC
:1036B40003F01EF8B4F82031C4F81831C4F81C31F2
:1036C400D4F81031C4F8143143E094F8FB1003F03B
:1036D400C3FC01283DD1D5F88835D4F800219B1AC4
:1036E40094F8FC20934234D3D5F88835C4F80031DB
:1036F40094F88931012B02D12846FFF701FDD4F853
:103704001C21D4F824319A421AD894F8FB30B4F826
:103714002021D4F81411284602F0EAFFB4F820312D
:10372400D4F814211A44C4F81421D4F818211A44E2
:10373400C4F81821D4F81C211344C4F81C3108E03F
:103744004FF0FF33C4F818310523A3702846FFF760
:1037540091FF012038BD00BF70B50546D0F844354F
:10376400DC69A378013B042B04D8DFE803F00525CA
:1037740015333700012632E094F80431173304EB93
:10378400C303DB68DB791BB90323A370012626E09E
:103794000223A370012622E094F80431173304EBCA
:1037A400C303DA68083294F8F410FFF78FFA064678
:1037B400A8B90523A37012E004F5867294F8F410F6
:1037C400FFF784FA064650B90523A3702846FFF78D
:1037D4004FFF04E0FFF750FF002600E000263046CC
:1037E40070BD00BF08B5D0F84435DB6993F8FA30F2
:1037F400012B01D1FFF7B0FF012008BD0020704765
:1038040008B521220274202242740022428282825C
:103814000722C28202F034FE08BD00BF08B5A1220F
:103824000274212242740022428282820722C282CE
:1038340002F026FE08BD00BF38B50446D0F8443572
:10384400D9694031FFF7EAFF054620B9D4F8943529
:10385400022120469847284638BD00BF38B50546A2
:10386400D0F84435DC69217839B102F077FF21784A
:10387400284602F08BFF00232370217B41B12846A8
:1038840002F06CFF217B284602F080FF00232373A3
:10389400617B41B1284602F061FF617B284602F05A
:1038A40075FF00236373D5F84435D86928B103F054
:1038B4003FFCD5F844350022DA61002038BD00BF52
:1038C40070B584B0044601230222114602F0C4FA02
:1038D400FF2800F09F8006460146204602F0B2FA17
:1038E400D4F84455502003F01BFCE861D4F8443567
:1038F400DD69322303FB064393F8483313F0800F4A
:1039040006D06B70322303FB0646B6F84A336B814C
:103914006978204602F028FF0146287094F81C3389
:103924006A78688902900320019094F81D0300903E
:10393400204602F003FF00222978204603F098FB7A
:1039440000231A460A21204602F086FAFF2863D093
:10395400322303FB004393F8483313F0800F07D05E
:10396400EB73322303FB0043B3F84A336B8306E063
:10397400AB73322303FB0043B3F84A332B83322364
:1039840003FB004393F8503313F0800F07D0EB731D
:10399400322303FB0040B0F852336B8306E0AB7371
:1039A400322303FB0040B0F852332B83A97B20461B
:1039B40002F0DAFE6873E97B204602F0D5FE287334
:1039C40094F81C33AA7B697B288B0290022601960B
:1039D40094F81D030090204602F0B0FE94F81C33C6
:1039E400EA7B297B688B0290019694F81D03009072
:1039F400204602F0A3FE002685F84C603246697B1F
:103A0400204603F035FB3246297B204603F030FB89
:103A1400304602E0022000E0022004B070BD00BF86
:103A2400704700BF30B583B00546D0F84435DC6933
:103A340094F84D30012B02D0022B18D03AE0606A82
:103A4400228B904207D9637BE169012000902846CC
:103A540002F018FE07E0637BE1690122009282B262
:103A6400284602F00FFE022384F84D3022E0617BE9
:103A740003F0F2FA012818D1626A238B9A4205D91D
:103A8400D21A6262E2691344E36101E000236362D3
:103A9400636A1BB1012384F84D300BE0002384F8E2
:103AA4004D302846FFF7BCFF04E0022802D1012371
:103AB40084F84D3003B030BD704700BF38B50546BB
:103AC400D0F84435DC6994F84E30032B02D0042B33
:103AD40009D038BD237B628B216A02F0E9FD0423FF
:103AE40084F84E3038BD217B03F0B6FA012819D191
:103AF400217B284603F064FA80B2A36A98420BD073
:103B0400628B904208D91B1AA362236A184420626C
:103B1400032384F84E3038BD002384F84E30284601
:103B2400FFF7CAFF38BD00BF704700BF38B5054670
:103B3400D0F84435DC6994F84C30042B04D8DFE821
:103B440003F0460515363D00012038BDA16CFFF792
:103B540057FE20B9022384F84C30012038BD0128D7
:103B640037D0042384F84C30012038BD04F14001DF
:103B7400FFF754FEA0B9002384F84C30636C23F0A3
:103B84007F42A16C4B6823F07F439A4223D1226C7D
:103B94000B689A4221D12846FFF7C6FF012038BDA1
:103BA40001281CD0042384F84C30012038BDFFF7D1
:103BB40039FF2846FFF782FF012038BD002102F0BB
:103BC40017FD70B9002384F84C30012038BD002063
:103BD40038BD012038BD012038BD012038BD012089
:103BE40038BD012038BD00BFD0F84435DB699A7870
:103BF400062A08D1D0F88825196A521A998B8A4264
:103C040001D304229A700020704700BF0B78037020
:103C14004B7843708B78CA7803EB022343800B798B
:103C240003714B7943718B798371CB790A7A03EBF6
:103C340002230381704700BF38B50446D0F84435E9
:103C4400DD69697839B102F089FD6978204602F0AE
:103C54009DFD00236B70297841B1204602F07EFD62
:103C64002978204602F092FD00232B70D4F84435C5
:103C7400D86908B103F05CFA002038BDF0B585B00E
:103C84000446D0F84415FF230122097902F0E4F830
:103C9400FF2800F08D800146204602F0D3F8D4F8C6
:103CA4004455342003F03CFAE861D4F84435DD6926
:103CB4000723AB7094F81F33322202FB034393F8BB
:103CC4004333012B02D13D4B2B6303E0022B71D113
:103CD4003B4B2B630023AB706B7194F81F33322280
:103CE40002FB034393F84833AB7694F81F3302FB8B
:103CF4000343B3F84A332B8394F81F3302FB034383
:103D040093F84C33AB83092B01D80A23AB8394F883
:103D14001F33322202FB034393F84073052F28BF5D
:103D24000527002640E094F81F13731C322202FB7F
:103D340001F202EBC303234493F8401311F0800F04
:103D440018D02971204602F00FFD0146687094F8DE
:103D54001C332A79288B02900320019094F81D03C8
:103D64000090204602F0EAFC00226978204603F025
:103D74007FF917E0E970204602F0F6FC014628704E
:103D840094F81C33EA78288B02900320019094F86D
:103D94001D030090204602F0D1FC00222978204621
:103DA40003F066F90136F6B2BE42BCD3002002E04D
:103DB400022000E0022005B0F0BD00BF3D41000834
:103DC400A541000800B583B0009100F58E734FF44F
:103DD4000852012102F076FB03B05DF804FB00BF3A
:103DE40000B583B0009100F58E734FF404520121A5
:103DF40002F068FB03B05DF804FB00BF10B521249A
:103E040004740A24447442EA012242820021818219
:103E1400C1820A4602F034FB10BD00BF38B5A125AB
:103E240005740125457442EA0122428200228282FD
:103E34009DF8102092B2C282194602F021FB38BDCF
:103E440008B5212202740B224274B1FA81F14909A6
:103E5400418200218182C1820A4602F011FB08BD21
:103E640038B50446D0F84435DD696B79052B36D86E
:103E7400DFE803F00335110319280921FFF7B0FF28
:103E840078BB04F58E7105F12600FFF7BFFE02230F
:103E94006B71012038BDE98DFFF794FF18BB042333
:103EA4006B71012038BD00221146FFF7A7FF18B936
:103EB40005236B71012038BD032816D105236B71CE
:103EC400012038BD0021FFF7BBFF80B901236B71CE
:103ED400D4F89435022120469847002038BD0120AB
:103EE40038BD012038BD012038BD012038BD012076
:103EF40038BD00BF00238380C380837202810160C8
:103F0400704700BF837A23BB70B4012383720024FB
:103F140018E0C3888588AB420DD04D1C0668F35C5D
:103F24000B70C38801339BB2C38001898B4206D1D5
:103F34000023C38003E000238372204607E001349A
:103F4400A4B229469442E4D300238372104670BC81
:103F54007047002383721046704700BF837A43BBC7
:103F6400F0B40123837200241CE085886B1CC6888E
:103F7400B34203D00789BB4204D11EB90023837224
:103F8400204614E003684E1C097859558388013390
:103F94009BB2838001898B4201D100238380013449
:103FA400A4B231469442E0D3002383721046F0BC9D
:103FB4007047002383721046704700BF704700BFEC
:103FC40030B583B00546D0F84435DC69A378062BB8
:103FD40052D8DFE803F00406515121192F00236B56
:103FE40098476369227E0092002201212846FFF748
:103FF40015FF002840D1228B616904F10800FFF706
:10400400ADFF0523A37037E0D0F8883513F0010F16
:1040140032D00423A3702FE06378227E616902F01A
:1040240057FB0623A370D5F888352362002384F850
:10403400243021E0617803F00FF801280FD194F8BF
:104044002430CBB9228B616904F10800FFF786FFA5
:10405400012384F824302846FFF7B0FF0CE0617890
:10406400284602F0F9FF052806D1A17E284602F071
:10407400BFFA08B90423A370002003B030BD00BF09
:1040840038B5D0F84435DC69228B002A47D026495C
:1040940004F10800FFF736FF238B984241D1234DEA
:1040A4000021284600F09EF8214C6070002105F1A3
:1040B400200000F097F8A070002105F1400000F006
:1040C40091F8E070002105F1600000F08BF8207198
:1040D400002105F1800000F085F86071002105F1F0
:1040E400A00000F07FF8A071002105F1C00000F0ED
:1040F40079F8E071002105F1E00000F073F8207216
:10410400002408E021460B4800F06CF8084B2344D7
:1041140058720134E4B2052CF4D9002038BD0220D1
:1041240038BD022038BD00BF3C01002034730008B4
:10413400440100203474000838B5D0F84435DC69F3
:10414400104A0023937053701371D3709371537199
:104154001372D37104E000250B4A42F82350013353
:10416400012BF8D9238B022B01D902232383064B7D
:104174006361502200F58E7104F10800FFF7BAFE66
:10418400002038BD440100203C01002008B5FFF7A1
:1041940077FF08B9014808BD002008BD440100208C
:1041A40010B5D0F84435DC690C4A00231370537001
:1041B4009370D37013710A4A1360238B042B01D9B3
:1041C40004232383064B6361282200F58E7104F1D6
:1041D4000800FFF78FFE002010BD00BF540100202F
:1041E4005C010020F0B406460768007A737A43B194
:1041F4008B423AD9746804FB010407EBD40704F03A
:10420400070000231C4604E03A78DC0002FA04F4B8
:104214000133726812F0070F02D0D508013500E0AF
:10422400D508AB42F0D3C44001239340581E044048
:10423400F1688C421BD331698C421AD8B17A71B1BE
:10424400013A012101FA02F2224208D05B4243EA18
:104254000400F3698B420FD003FB00F00CE0F0691B
:10426400012808D000FB04F006E0002004E0002050
:1042740002E0002000E02046F0BC704700207047B8
:1042840070B5D0F84435DC69237B23B1012B00F0F1
:104294003E81012070BD0646B4F8F81023689942A7
:1042A40080F02A81342303FB0143012283F8912007
:1042B40093F89030082B00F22C81DFE813F009000A
:1042C4002A0142009B001300CE002A012A01180192
:1042D400342303FB0143042283F89020D0F888356B
:1042E400C4F8FC30342202FB01F298322244073233
:1042F400C9B2304600F014FC034638B9B4F8F820CB
:10430400342101FB0242022182F89010022B09D1D0
:10431400B4F8F830342202FB0344052384F89030C7
:10432400012070BD042B40F0F680B4F8F83034223C
:1043340002FB0344012084F89000022384F89130A6
:1043440070BDC9B200F07CFB0246F8B9B4F8F8308D
:10435400342101FB034191F8921031B1342101FB66
:104364000341012081F8C10005E0342101FB034130
:10437400002081F8C100342101FB0343032183F8A9
:104384009010002183F8911083F89210022A22D110
:10439400B4F8F830342202FB034292F89220022A45
:1043A40006D0342202FB0342012182F8C11005E049
:1043B400342202FB0342002182F8C110342202FBA2
:1043C4000344052384F89030012084F891000223EB
:1043D40084F8923070BD042A40F09F80B4F8F8301D
:1043E400342202FB0344012084F89000022384F861
:1043F400913070BD342202FB01F290322244043227
:10440400C9B200F045FB70B9B4F8F830342202FBAD
:104414000342012082F89000002182F891100344A5
:10442400A4F8F83070BD022809D1B4F8F830342269
:1044340002FB0344052384F89030012070BD042856
:104444006DD1B4F8F830342202FB0344012084F81F
:104454009000022384F8913070BD342202FB01F2F3
:10446400983222440432C9B200F0C2FB024620BB97
:10447400B4F8F830342101FB034191F89C1006296B
:1044840001D0022910D1D6F88815D4F8FC00091AF5
:1044940042F20F70814207D8342202FB0343022206
:1044A40083F89020012070BD342101FB03410120D9
:1044B40081F890000344A4F8F830022A09D1B4F832
:1044C400F830342202FB0344082384F8903001209E
:1044D40070BD042A25D1B4F8F830342202FB034419
:1044E400012084F89000022384F8913070BD0131DA
:1044F400A4F8F810012070BD0023A4F8F8300125B9
:104504002573D0F8943502219847284670BD0020C1
:1045140070BD012070BD012070BD012070BD01205F
:1045240070BD012070BD00BF38B5D0F84435DC69DA
:10453400A37B022B02D0032B1BD013BB214600F01C
:104544002BF9032801D100202060E8B92578013532
:10455400256000230AE0342202FB0342022182F890
:104564009210002182F8C1100133DBB29D42F2D8CF
:1045740038BD002102F03CF828B9E37BA373012085
:1045840038BD012038BD012038BD00BF38B5044610
:10459400D0F84435DD69697939B102F0DFF8697919
:1045A400204602F0F3F800236B71297941B12046CB
:1045B40002F0D4F82979204602F0E8F800232B71A0
:1045C400D4F84435D86928B102F0B2FDD4F84435A2
:1045D4000022DA61002038BDF0B585B00446D0F879
:1045E400441550230622097901F036FCFF2800F017
:1045F40088800146204601F025FCD4F844554FF448
:10460400807002F08DFDE861D4F84435DD6994F8DA
:104614001F33322202FB034393F8483313F0800F15
:1046240008D0EB7194F81F3302FB0343B3F84A3309
:104634006B8108E0AB7194F81F33322202FB034311
:10464400B3F84A332B8194F81F33322202FB03431D
:1046540093F8503313F0800F08D0EB7194F81F33A4
:1046640002FB0343B3F852336B8108E0AB7194F857
:104674001F33322202FB0343B3F852332B8100264B
:10468400A5F8F860A5F8FA602E736E73AE73A97975
:10469400204602F069F86871E979204602F064F86E
:1046A4002871204600F086F86822314605F1900012
:1046B40002F051FD94F81C33AA7969792889029093
:1046C4000227019794F81D030090204602F036F863
:1046D40094F81C33EA79297968890290019794F84F
:1046E4001D030090204602F029F83246297920461D
:1046F40002F0BEFC32466979204602F0B9FC30462D
:1047040000E0022005B0F0BD10B5D0F84435DC69F6
:10471400217902F055FC0D2810D1A26F0D4B9A425D
:104724000ED1E26FA36D9A420CD194F884305BB140
:10473400012B0BD0022B0BD0012010BD022010BD89
:10474400022010BD012010BD002010BD012010BDAD
:10475400022010BD5553425308B5D0F84435DB69E7
:1047640012B1012A04D007E0D97901F041FF08BD54
:10477400997901F03DFF08BD022008BD08B521224A
:104784000274FF224274002141828182C1820A465E
:1047940001F076FE08BD00BF08B5A1220274FE2216
:1047A40042740022428282820122C28201F068FEA7
:1047B40008BD00BFD0F84435DB69054A5A65054A8F
:1047C4009A65012283F8502083F852200020704714
:1047D400555342435040302070B582B00546D0F85E
:1047E4004435DC6994F85030013B0A2B00F2158102
:1047F400DFE813F00B001A0042004D00780085003A
:10480400B800C300DB00EB000B0184F86110022345
:1048140084F850306379012600961F2204F1540174
:1048240001F030FF334607E1617902F015FC0128FD
:1048340014D1E36D6BB194F96030002B04DA0323D7
:1048440084F850300123F7E0052384F85030012325
:10485400F2E0072384F850300123EDE0022803D16D
:10486400012384F85030E7E0052840F0D8800A237B
:1048740084F850300123DFE023796289D4F88C1066
:1048840001F016FF042384F850300123D4E0217989
:1048940002F0E2FB01281DD1E36D6289934207D93E
:1048A400D4F88C101144C4F88C109B1AE36501E011
:1048B4000023E365E36D43B123796289D4F88C1056
:1048C400284601F0F5FE0123B6E0072384F85030B2
:1048D4000123B1E0052840F0A480092384F8503076
:1048E4000123A9E063792289D4F88C10012600966B
:1048F40001F0C8FE062384F8503033469CE0617909
:1049040002F0AAFB01281FD1E36D2289934207D943
:10491400D4F88C101144C4F88C109B1AE36501E0A0
:104924000023E365E36D53B163792289D4F88C10D5
:1049340001240094284601F0A5FE23467CE00723C9
:1049440084F85030012377E0022804D1052384F849
:104954005030012370E0052865D10A2384F85030D3
:10496400012369E023790D2204F1780101F0A0FE0E
:10497400082384F8503001235EE0217902F06CFBB7
:1049840001280BD1012384F8503084F85230284692
:10499400FFF7BAFE002848D100234DE0052846D190
:1049A400092384F85030012346E00022FFF7D4FEA7
:1049B40020B9072384F8503001233DE0042838D17E
:1049C4000B2384F85030012336E00122FFF7C4FEA4
:1049D400A0B96179284602F065FBC0F10102D2B2A8
:1049E4006179284602F044FB00222179284602F02E
:1049F4003FFB092384F8503001231DE004281AD119
:104A04000B2384F85030012316E0FFF7B7FE03466A
:104A140090B9012284F850200EE001230CE0012318
:104A24000AE0012308E0012306E0022304E0012355
:104A340002E0012300E00123184602B070BD00BF6C
:104A440008B5D0F84435DB6993F85220012A02D026
:104A5400022A18D01AE00022DA6583F860200A21BD
:104A640083F86210C3F86320C3F86720C3F86B208F
:104A7400C3F86F2083F86320012083F850000222DA
:104A840083F8522008BDFFF7A7FE08BD022008BD29
:104A940038B5D0F84435DC6994F85230012B02D093
:104AA400022B1FD038E00823E365802384F86030AC
:104AB4000A2384F862300023C4F86330C4F86730F2
:104AC400C4F86B30C4F86F30252384F863300123B5
:104AD40084F85030022284F8522004F11002C4F801
:104AE4008C201AE01546FFF777FE0346A8B9D4F8E0
:104AF4008C10CA78887842EA0022487842EA004258
:104B0400097842EA01622A60D4F88C10CA7989795A
:104B140042EA0122AA8000E00123184638BD00BF02
:104B2400F8B5D0F84435DC6994F85230012B02D042
:104B3400022B26D059E02422E265802384F86030D9
:104B44000A2384F862300023C4F86730A4F86B3079
:104B5400122084F86300490184F8641084F86530F5
:104B640084F8663084F8672084F86830012584F876
:104B74005050022384F8523004F11003C4F88C30EE
:104B840034E01646FFF728FE054678BB22220021B2
:104B9400304602F0E0FAD4F88C301B7803F01F039F
:104BA4007370D4F88C301B785B093370D4F88C3074
:104BB4005B78DB09B370D4F88C3053F8082F5B684A
:104BC400C6F80320C6F80730D4F88C3053F8107FA9
:104BD40058689968DB68F76030617161B361D4F833
:104BE4008C301B6AC6F81D3000E002252846F8BD4B
:104BF40038B5D0F84435DC6994F85230012B02D032
:104C0400022B28D03BE00E20E065802384F860303E
:104C14000A2384F862300023C4F86730C4F86B3088
:104C2400C4F86F30032284F86320490184F86410C7
:104C340084F8653084F8663084F8670084F8683056
:104C4400012384F85030022284F8522004F1100227
:104C5400C4F88C2014E01546FFF7BEFD034678B96E
:104C6400D4F88C20927802F00F022A70D4F88C20A9
:104C7400127B6A70D4F88C20527BAA7000E0022365
:104C8400184638BD70B4002430E02546322303FBB7
:104C9400040393F84133062B26D122E00E464B1C25
:104CA400322202FB05F202EBC303034493F94033BF
:104CB400002B13DA4B1C322202FB05F202EBC30376
:104CC4000344B3F842334BB1013602EBC606064443
:104CD40096F8413303F00303032B0BD00131C9B21F
:104CE40000E000210429D9D90134E4B2092CCCD93B
:104CF400FF2000E0084670BC704700BF70B4002479
:104D04002FE02546322303FB040393F84133062B9B
:104D140025D121E01E465A1C322101FB05F101EB8D
:104D2400C202024492F94023002A12DB5A1C3221A7
:104D340001FB05F101EBC2020244B2F8422342B185
:104D4400013601EBC606064496F8412312F0020F21
:104D54000BD10133DBB200E00023042BDAD9013498
:104D6400E4B2092CCDD9FF2000E0184670BC70478E
:104D740070B400242FE02546322303FB040393F888
:104D84004133062B25D121E00E464B1C322202FB77
:104D940005F202EBC303034493F94033002B12DA08
:104DA4004B1C322202FB05F202EBC3030344B3F8AB
:104DB400423343B1013602EBC606064496F841334A
:104DC40013F0020F0BD10131C9B200E00021042914
:104DD400DAD90134E4B2092CCDD9FF2000E0084629
:104DE40070BC7047002070470020704770B50546BE
:104DF400D0F84435DC6941F62D53E15C49B101F04A
:104E0400ADFC41F62D56A15D284601F0BFFC002300
:104E1400A35541F62C53E15C51B1284601F09EFCA8
:104E240041F62C56A15D284601F0B0FC0023A355A1
:104E340041F62E53E15C51B1284601F08FFC41F656
:104E44002E56A15D284601F0A1FC0023A355D5F8F8
:104E54004435D86928B102F06BF9D5F844350022FD
:104E6400DA61002070BD00BF2DE9F04784B004462C
:104E740001231A46062100F0EFFFFF2800F0B1805D
:104E840006460146204600F0DDFF2046FFF7FAFE05
:104E94000746D4F8445542F2D01002F041F9E861D3
:104EA400D4F84435DD690137322000FB06F606EB01
:104EB400C707274497F8401341F6315A05F80A10FA
:104EC400B7F8423341F6365925F80930204601F047
:104ED4004BFC014641F62E5805F8080097F8442388
:104EE40041F64453EA5294F81C3315F80A2035F875
:104EF400090002900320019094F81D0300902046BD
:104F040001F01CFC002215F80810204602F0B0F84D
:104F14002046FFF72DFF013006EBC000204490F837
:104F2400401341F6305905F80910B0F8423341F600
:104F34003457EB53204601F017FC014641F62C5838
:104F440005F8080094F81C3315F80920E85B029072
:104F54000227019794F81D030090204601F0EEFB10
:104F6400002215F80810204602F082F82046FFF7C8
:104F7400C5FE013006EBC006264496F8401341F600
:104F84002F5905F80910B6F8423341F6325825F87E
:104F94000830204601F0E8FB014641F62D56A8559D
:104FA40094F81C3315F8092035F80800029001978D
:104FB40094F81D030090204601F0C0FB0022A95D77
:104FC400204602F055F841F63853EF54002342F2DC
:104FD400CC12AB5041F63C52AB54204600F010FBCF
:104FE40000E0022004B0BDE8F08700BF704700BFB6
:104FF40008B5D0F84435DB6941F654529A5841F665
:105004004E51595AFFF7F2FF08BD00BF38B50546A7
:10501400D0F84435DC6941F63C53E35C13B1012B11
:105024001AD03FE0D0F8883513F0010F3AD1D0F808
:10503400882504F5EA531A6041F62E53E35C41F6E1
:105044003652A25C04F5EA51083101F041FB012219
:1050540041F63C53E25425E041F62E53E15C01F065
:10506400FBFF012802D12846FFF7C2FFD5F8883597
:1050740004F5EA5212689B1A41F64452A25A93422A
:1050840010D3D5F8882504F5EA531A6041F62E5357
:10509400E35C41F63652A25C04F5EA510831284635
:1050A40001F016FB012038BD70B50546D0F8443533
:1050B400DC6941F63853E35C052B66D8DFE803F07E
:1050C400610E03651930012100F084FC06460028B6
:1050D4005CD1012241F63853E25457E0214600F0F6
:1050E400ADFC0646002851D1042241F63853E2545F
:1050F4004CE004F6041100F0EFFC064610B145E064
:10510400013300E00023D4F804299342F8D30022A9
:1051140042F2C813E250052241F63853E25435E016
:1051240042F2C813E35803F5107104EB810103EB59
:1051340003135A0102F512622244896800F01AFD31
:10514400064618BB42F2C812A3580133A350D4F840
:10515400042993421AD3002341F63852A35401215F
:1051640042F2CC12A15042F2C812A350D4F808293A
:1051740041F61853E250D5F8943502212846984751
:1051840004E0FFF743FF002600E00026304670BD30
:1051940010B40B7813800C786400002305E0CA185F
:1051A400527800F8012B02339BB2A342F7D30023B9
:1051B400037010BC704700BF2DE9F04383B0144660
:1051C400D0F84435D3F81CE041F690530EEB0305B8
:1051D4001EF8033041F691521EF8022003EB02231D
:1051E400238041F692531EF8033041F693521EF881
:1051F400022003EB0223638041F694531EF803302C
:1052040041F695521EF8022003EB0223A38041F6D7
:1052140096531EF80300002141F697531EF80360CD
:10522400002332028018594141F698531EF8036056
:10523400002332048018594141F699531EF8036043
:105244000023320680185941002241F69A561EF86E
:1052540006308018594141F69B531EF803804FEAEB
:1052640008278018794141F69C531EF803804FEAC1
:1052740008478018794141F69D531EF803804FEA90
:10528400086716184F41C4E9026741F69E531EF899
:105294000360002741F69F531EF8038000214FEA64
:1052A400082036184F410EF5ED5393F80080002185
:1052B4004FEA084036184F4141F6A1531EF80380C7
:1052C40000214FEA08608019794141F6A2531EF883
:1052D4000390801841EB090141F6A3531EF80380A3
:1052E4004FEA08278018794141F6A4531EF8038039
:1052F4004FEA084716184F4141F6A5531EF803809C
:105304004FEA0861B6184F41C4E9046741F6A65351
:105314001EF8033041F6A7521EF8022003EB0223C5
:1053240041F6A8521EF8022003EB024341F6A952AB
:105334001EF8022003EB0263A3610DF106020EF5D1
:10534400ED510A3104F11C00FFF722FFBDF80610ED
:1053540049001B310DF10602294404F21B10FFF72A
:1053640017FF03B0BDE8F08370B406468B5C501C95
:10537400085C03EB0023901C085C03EB0043D01C87
:10538400085C03EB006000240AE0A31C02EB430367
:10539400CD5C0133CB5C05EB032326F814300134D8
:1053A4008442F2D370BC7047D0F84435DB6942F2D2
:1053B400BC129A58002A40F0AA8070B582B003F556
:1053C400EC5510350C4641F690529A5C41F69151D9
:1053D400595C02EB0122228041F692529A5C41F61A
:1053E4009351595C02EB012241F69451595C02EB52
:1053F400014241F69551595C02EB0162626041F64B
:1054040096529A5C41F69751595C02EB0122228133
:105414000DF1060203F5EC51183104F10A00FFF70F
:10542400B7FEBDF806205200561C02F10903EB5CDE
:1054340002F10A01695C03EB0123A4F80A310B327F
:10544400294604F58870FFF78FFFC4F80C0106EBBA
:105454004002161D0E32294604F5EE70FFF784FF54
:10546400C4F8D80106EB4002161D0E32294604F595
:105474002A70FFF779FFC4F8A40206EB4002161D58
:105484000E32294604F55D70FFF76EFFC4F8700311
:1054940006EB4002161D0E32294604F58860FFF71C
:1054A40063FFC4F83C0406EB4000061D00F10E0146
:1054B4000DF10602294404F5A160FFF769FEBDF869
:1054C400061006EB41014E1C0B310DF10602294476
:1054D40004F20760FFF75CFEBDF8061006EB41011D
:1054E4004E1C0B310DF10602294404F20670FFF73D
:1054F4004FFEBDF8061006EB41010B310DF106021B
:10550400294404F60500FFF743FE02B070BD70475E
:10551400F0B586468B5C501C085C03EB0023901CA2
:10552400085C03EB0043D01C085C03EB006000251F
:1055340012E0AE00013502EB85040B5D671CCF5D04
:1055440003EB0723A71CCF5D03EB074303340C5D78
:1055540003EB04634EF806308542EAD3F0BD00BF86
:1055640010B50C46D0F84435D969002201F5EC5148
:105574001031201DFFF7CCFF206010BD38B5D0F8E6
:105584004435DC6941F68A53E35AA3F58053013B61
:105594001A2B34D8DFE803F00E3333333333333389
:1055A40012333333273333333333333333333333F4
:1055B400333312002146FFF7F7FE38BD42F2BC1325
:1055C400E358E3B942F2C4154FF47D7204F5EC518B
:1055D4001031605901F0B4FD635903F57D7342F253
:1055E400B012A35038BD42F2BC13E3583BB942F2A7
:1055F400C413E35803F57D7342F2B012A35038BDCF
:10560400D0F84435DB6903F5EB520020107001211A
:1056140041F661529954704770B50D46D0F844353F
:10562400DC6941F6645620220021A01901F093FDA3
:1056340095F8203003339B00A351012241F66853AF
:10564400E2522A8841F66A53E252AA6841F66C5340
:10565400E250EA6841F67053E2502A6941F6745305
:10566400E2506A6941F67853E250AA6941F67C53E4
:10567400E250EB6904F5EC542360002070BD00BFD8
:10568400D0F84435DB6942F28A129A5A0A8042F20F
:10569400A8129A584A6042F28C129A588A6042F2CE
:1056A40090129A58CA6042F294129A580A6142F2CD
:1056B40098129A584A6142F29C129A588A6142F2AC
:1056C400A0129B58CB610020704700BF70B58CB00E
:1056D4000646D0F84435DC6904F5EB531B78013BEE
:1056E400082B00F26981DFE813F009001A004B006F
:1056F4005E00BB00CC0032014101620141F66451FD
:1057040041F62D53E35C625A01250095214400F0D3
:10571400B9FF04F5EB5402232370284657E141F600
:105724002D53E15C01F098FC012819D142F2AC132D
:10573400E35823B904F5EB540723237047E1012B05
:1057440005D104F5EB540323237001203FE1022B20
:1057540040F0348104F5EB5405232370012036E135
:10576400022804D104F5EB54012020702FE1052810
:1057740040F0268104F5EB5409232370012026E12F
:1057840041F62D53E35C41F63252A25A42F2B01173
:1057940061580125009500F075FF04F5EB540423CE
:1057A4002370284613E141F62D53E15C01F054FCCB
:1057B400012844D142F2B413E25841F63253E35A79
:1057C4009A421DDD42F2B010215819442150D21AD8
:1057D40042F2B411625042F2B81162581344635059
:1057E400B3F57D7F10D33046FFF7C8FE002242F2A6
:1057F400B813E25042F2BC12A3580133A35003E0A1
:10580400002242F2B413E25042F2B413E358002BE4
:105814000FDD41F62D53E35C41F63252A25A42F2B7
:10582400B011615801240094304600F02BFF20464B
:10583400CDE004F5EB54072323700120C7E00228D0
:1058440005D104F5EB54032323700120BFE00528A0
:1058540040F0B88004F5EB54092323700120B6E02E
:1058640041F62C53E35C41F63452A25A42F2B01191
:10587400615800F01DFF04F5EB540623237001204A
:10588400A5E041F62C53E15C01F0E6FB012856D17A
:1058940041F62C53E15C304601F092FB04F50752CB
:1058A4001368591C116053B942F2B013E3581A68D3
:1058B40042F2B413E250002242F2BC13E25041F629
:1058C4003453E35A98422FD342F2B413E358002BD3
:1058D4002ADD42F2B0116258024462501B1A42F2AD
:1058E400B412A35042F2B812A3581844A050B0F511
:1058F4007D7F0BD33046FFF741FE002242F2B813FE
:10590400E25042F2BC12A3580133A35041F62C5387
:10591400E35C41F63452A25A42F2B0116158304667
:1059240000F0C6FE012052E042F2B412A3581B1A42
:10593400A35004F5EB5407232370012047E0052806
:1059440042D104F5EB540923237001203FE041F6D2
:105954002C53E35C3F2204F50651043100F0A8FE09
:1059640004F5EB5408232370012030E041F62C5356
:10597400E15C01F071FB012811D103A93046FFF766
:105984007FFEBDF80C2042F201039A4201D10020AF
:1059940000E00220012241F66153E25417E0052899
:1059A40014D104F5EB540923237001200FE00120E6
:1059B40041F66153E0540AE0012008E0012006E0CA
:1059C400012004E0012002E0012000E001200CB0ED
:1059D40070BD00BF30B58BB0D0F84435DC6941F6FA
:1059E4006153E35C012B02D0022B20D022E0002380
:1059F40042F2A812A15042F2AC12A35041F20202A8
:105A0400ADF804200291012542F2A412A55003939B
:105A140004918DF8245001A9FFF7FEFD04F5EB5322
:105A24001D70022241F66153E254284603E0FFF759
:105A34004DFE00E001200BB030BD00BF70B58AB050
:105A44000546D0F84435DC6941F66153E35C012B2B
:105A540003D00E46022B31D039E0022642F2AC13B9
:105A6400E65004F5EC53043342F2B012A350002381
:105A740042F2B412A35004F50752136042F2B81272
:105A8400A35041F20102ADF8042042F2A812A25838
:105A9400029242F2A4116258501C605003928DF895
:105AA400243001A92846FFF7B7FD04F5EB52012382
:105AB400137041F66152A6541C4609E0FFF706FE36
:105AC400044628B931462846FFF76EFC00E001245D
