:100000000C9434000C9451000C9451000C94510049
:100010000C9451000C9451000C9451000C9451001C
:100020000C9451000C9451000C9451000C9451000C
:100030000C9451000C9451000C9451000C945100FC
:100040000C9451000C9451000C9451000C945100EC
:100050000C9451000C9451000C9451000C945100DC
:100060000C9451000C94510011241FBECFEFD8E026
:10007000DEBFCDBF11E0A0E0B1E0E0E0F8E002C0FB
:1000800005900D92A239B107D9F711E0A2E9B1E0CC
:1000900001C01D92A239B107E1F70E94F5030C944B
:1000A000FE030C9400002D9A88E592E020E931E0EF
:1000B000F9013197F1F70197D9F72D988CE291E08A
:1000C00020E931E0F9013197F1F70197D9F7089567
:1000D000382F6330710501F164307105B1F1623080
:1000E000710509F04AC0452B61F024B181E090E030
:1000F00002C0880F991F3A95E2F78095822384B950
:10010000089524B181E090E002C0880F991F3A95CC
:10011000E2F7282B24B90895452B61F027B181E03F
:1001200090E002C0880F991F3A95E2F780958223EC
:1001300087B9089527B181E090E002C0880F991F28
:100140003A95E2F7282B27B90895452B61F02AB19B
:1001500081E090E002C0880F991F3A95E2F7809500
:1001600082238AB908952AB181E090E002C0880F05
:10017000991F3A95E2F7282B2AB90895282F633062
:10018000710551F06430710589F06230710511F02C
:1001900080E0089583B101C086B190E002C09595DA
:1001A00087952A95E2F780958170089589B190E04E
:1001B00002C0959587952A95E2F7809581700895FC
:1001C000382F6330710501F164307105B1F162308F
:1001D000710509F04AC0452B61F425B181E090E03A
:1001E00002C0880F991F3A95E2F78095822385B95E
:1001F000089525B181E090E002C0880F991F3A95DB
:10020000E2F7282B25B90895452B61F428B181E048
:1002100090E002C0880F991F3A95E2F780958223FB
:1002200088B9089528B181E090E002C0880F991F35
:100230003A95E2F7282B28B90895452B61F42BB1A4
:1002400081E090E002C0880F991F3A95E2F780950F
:1002500082238BB908952BB181E090E002C0880F12
:10026000991F3A95E2F7282B2BB90895382F66236A
:1002700061F027B181E090E002C0880F991F3A95A4
:10028000E2F78095822387B9089527B181E090E055
:1002900002C0880F991F3A95E2F7282B27B90895D5
:1002A000449844983C983D980895359902C081E05F
:1002B000089586B182958F70809581700895CF934F
:1002C000DF93682F2D9A359B5DC0349B5BC045C082
:1002D0006695862F90E09C012170307060FF02C00F
:1002E0003C9801C03C9AFD013197F1F73D9AFE011F
:1002F0003197F1F73D98FD013197F1F7232B29F064
:1003000080E0442309F481E0482F5F5F583001F713
:10031000442311F03C9801C03C9A80EC93E0FC012E
:100320003197F1F73D9A20E837E0F9013197F1F77D
:100330003D98FC013197F1F73C98FC013197F1F7BA
:100340003D9AF9013197F1F73D980197F1F780E86F
:1003500096E10197F1F72D9815C03C9A80EC93E057
:10036000FC013197F1F73D9AE0E8F7E03197F1F7BA
:100370003D980197F1F741E050E0A0ECB3E0C0E810
:10038000D7E0A7CFDF91CF910895DF92EF92FF9250
:100390000F931F93182FE62ED42E8B3681F08C36B8
:1003A00038F48631A9F0863471F08131B9F407C090
:1003B000823729F0823790F08457823078F4EE2427
:1003C000FF24F39414C0662389F04423F1F508C098
:1003D000662361F0442321F013E038C0EE2031F0B1
:1003E00002E1802F0E945F01FF2402C0FF2402E18E
:1003F000DD2019F084E10E945F01FF2019F080EEFA
:100400000E945F01112319F0812F0E945F01FF20DC
:1004100019F080EE0E945F01112331F080EF0E94FD
:100420005F01812F0E945F01DD2031F080EF0E948B
:100430005F0184E10E945F01EE2051F080EF0E9495
:100440005F01802F0E945F0103C016E601E1C9CF62
:100450001F910F91FF90EF90DF900895382F442364
:1004600019F4222381F437C090E0FC01EE0FFF1F46
:10047000EE0FFF1FE80FF91FE60FF11DE85DFE4FBD
:100480008081222371F0832F90E0FC01EE0FFF1F8B
:10049000EE0FFF1FE80FF91FE60FF11DE05BFE4FA7
:1004A0008081882319F060E040E012C0832F90E043
:1004B000FC01EE0FFF1FEE0FFF1FE80FF91FE60F05
:1004C000F11DE050FF4F80818823C1F0642F422F3F
:1004D0000E94C501089590E0FC01EE0FFF1FEE0F92
:1004E000FF1FE80FF91FE60FF11DE050FF4F80815D
:1004F000882321F060E040E00E94C50108950F9339
:100500001F93CF93DF93259A2D98C8E7D1E00DE78D
:1005100011E0F8016081888190E070E041E050E0F6
:100520000E946800F80161918F01899190E070E06C
:1005300041E050E00E94E000F1E0CD37DF0749F7ED
:10054000C0E0D0E0FE01EE57FE4FDE01A657BE4FE1
:100550006C91808190E070E041E050E00E94680082
:100560002196C830D10571F7DF91CF911F910F917E
:1005700008956F927F928F929F92AF92BF92CF9287
:10058000DF92EF92FF920F931F93CF93DF936091CF
:100590008F018091870190E070E040E050E00E9480
:1005A00068008AE18A95F1F76091810180917C0170
:1005B00090E070E00E94BE00882E882311F088240D
:1005C000839460918F018091870190E070E041E019
:1005D00050E00E9468001AE1812F8A95F1F760913E
:1005E00091018091890190E070E040E050E00E942C
:1005F00068001A95F1F76091800180917B0190E08D
:1006000070E00E94BE00982E882311F099249394E4
:100610000AE1802F8A95F1F760919101809189011B
:1006200090E070E041E050E00E946800882009F40A
:1006300051C0992009F44EC060918D0180918501CF
:1006400090E070E040E050E00E946800802F8A95C2
:10065000F1F76091800180917B0190E070E00E9451
:10066000BE00182F60918D018091850190E070E0AF
:1006700041E050E00E946800802F8A95F1F7609178
:100680008A018091820190E070E040E050E00E9499
:100690006800802F8A95F1F76091810180917C013B
:1006A00090E070E00E94BE00082F60918A01809166
:1006B000820190E070E041E050E00E946800112368
:1006C00011F086E403C0002399F086E161E041E087
:1006D0000E94C501B2E8AB2EB1E0BB2EAAE8CA2E3B
:1006E000A1E0DA2EEE24FAE16F2EE5E37E2E02C0C1
:1006F00080E0ECCFF6016081F501808190E070E050
:1007000040E050E00E946800F6016081F5018081C0
:1007100090E070E040E050E00E94E000862D8A9575
:10072000F1F708E711E0CDE7D1E0FF246881F80197
:10073000808190E070E00E94BE00882391F0872DB8
:100740008A95F1F76881F801808190E070E00E945D
:10075000BE00882331F08E2D6F2D482D292D0E944B
:100760002E02F3940F5F1F4F2196F5E0FF16F1F66E
:10077000F60161916F01F50181915F0190E070E0F8
:1007800041E050E00E946800E394F8E0EF1609F0C1
:10079000B1CF60918F018091870190E070E040E0DF
:1007A00050E00E94E000609191018091890190E009
:1007B00070E040E050E00E94E00088EE93E020E925
:1007C00031E0F9013197F1F70197D9F7DF91CF9136
:1007D0001F910F91FF90EF90DF90CF90BF90AF905F
:1007E0009F908F907F906F9008950E947F02449811
:1007F00044983C983D980E94B902FDCFF894FFCFF1
:100800002E25261E162C2D241D15342B231B1C369D
:100810003D3E4645353C43444D2A21221A00333B98
:10082000424B5A32313A00296B0000580E0000004A
:1008300000000000000000727574006600000000F7
:100840000000000000000000000000000000007632
:100850000000000000000000000000000000000098
:100860000000000000000000000000000000000088
:100870000000000000000000010004030203030266
:100880000202020304050607000104040404040430
:02089000020262
:00000001FF
